:100000000C9417010C9434010C9434010C943401B9
:100010000C9434010C9434010C9434010C9434018C
:100020000C9434010C9434010C9434010C9434017C
:100030000C9434010C9434010C9434010C9434016C
:100040000C940C090C9434010C9434010C9434017C
:100050000C9434010C9434010C9434010C9434014C
:100060000C9434010C9434010C9434010C9434013C
:100070000C9434010C9434010C943401084AD73B9D
:100080003BCE016E84BCBFFDC12F3D6C74319ABD67
:1000900056833DDA3D00C77F11BED9E4BB4C3E918B
:1000A0006BAAAABE000000803F07634236B79BD808
:1000B000A71A39685618AEBAAB558C1D3CB7CC5749
:1000C00063BD6DEDFD753EF6177231BF0000008017
:1000D0003F08000000BE922449123EABAAAA2ABEE5
:1000E000CDCCCC4C3E00000080BEABAAAAAA3E00FC
:1000F000000000BF000000803F0000000000084139
:1001000078D3BB4387D1133D190E3CC3BD4282ADAA
:100110002B3E68EC8276BED98FE1A93E4C80EFFF82
:10012000BE01C4FF7F3F00000000006E616E0069E9
:100130006E660000407A10F35A00A0724E18090053
:1001400010A5D4E80000E87648170000E40B54023C
:100150000000CA9A3B000000E1F505000080969877
:1001600000000040420F000000A0860100000010C7
:100170002700000000E80300000000640000000009
:10018000000A00000000000100000000002C76D8EA
:1001900088DC674F0823DFC1DFAE59E1B1B796E5D0
:1001A000E3E453C63AE651997696E8E6C28426EB34
:1001B000898C9B62ED407C6FFCEFBC9C9F40F2BA47
:1001C000A56FA5F490055A2AF75C936B6CF9676DDF
:1001D000C11BFCE0E40D47FEF520E6B500D0ED9034
:1001E0002E0300943577050080841E080000204E01
:1001F0000A000000C80C333333330F986E1283119A
:1002000041EF8D2114893BE65516CFFEE6DB18D170
:10021000844B381BF77C1D901DA4BBE42420328442
:10022000725E228100C9F124ECA1E53D2700112472
:100230001FBECFEFD0E1DEBFCDBF11E0A0E0B1E047
:10024000E4EDFBE202C005900D92AC36B107D9F7A0
:1002500012E0ACE6B1E001C01D92A538B107E1F7AC
:100260000E94290A0C94E8150C940000A1E1B0E06A
:10027000ECE3F1E00C94EC133C017F876E876A019C
:10028000FC0117821682838181FD03C06FEF7FEF2F
:100290006FC39E012F5F3F4F398B288BF301238162
:1002A000EE85FF8523FD859123FF8191FF87EE87F2
:1002B000882309F45AC3853251F4EE85FF8523FD66
:1002C000859123FF8191FF87EE87853229F490E0A5
:1002D000B3010E942515E2CF982F10E088249924BD
:1002E0001032B0F49B3269F09C3228F4903251F015
:1002F000933271F40BC09D3239F0903349F41160A0
:1003000028C01260146025C0186023C0106121C08D
:1003100017FD2AC0892F80538A3078F416FF06C053
:10032000FAE09F9E902C1124980E13C03AE0839E11
:10033000802C1124880E10620CC09E3221F416FD10
:1003400014C3106406C09C3611F4106802C09836BD
:1003500059F4EE85FF8523FD959123FF9191FF8749
:10036000EE87992309F0BCCF892F8554833020F480
:10037000812F8061905E07C0892F8556833008F0F9
:100380009FC1812F8F7E86FD02C076E0972E6FE39E
:10039000F62EF822953619F4F0E4FF2A07C09636B7
:1003A00019F420E8F22A02C091109A94F7FE0AC0CC
:1003B0003BE3391518F45CE3B52E02C0B92CB394B5
:1003C00027E009C047E0491520F4BB2447E0942EFC
:1003D000F7CF292DBB24C60104969D878C87F60193
:1003E0006081718182819381AE014F5F5F4F0B2DE0
:1003F0000E9437146C010981202E332400FF04C0B1
:1004000003FD02C01DE209C0F1FE02C01BE205C0EF
:10041000F2FC02C010E001C010E2C1018C709070CB
:10042000892BB9F1112311F483E001C084E0881510
:1004300010F088240AC0881AF3FC07C080E290E01C
:10044000B3010E9425158A94C9F7112329F0812F41
:1004500090E0B3010E94251523FE03C00BE211E0DA
:100460000EC00FE211E00BC0E114F10409F080525C
:1004700090E0B3010E9425150F5F1F4F05C0EF2CC0
:10048000FF24F0E1EF22FF24F8018491882361F733
:1004900014C1F7FE12C0BC0C24FE04C08A81813353
:1004A00009F4BA941B141CF0BB24B3942DC0F8E0DB
:1004B000FB1550F538E0B32E27C0F6FC25C0892D7A
:1004C00090E08C159D054CF02CEFC2162FEFD20654
:1004D00024F030E8F32A01C09A94992049F0E2E030
:1004E000F0E0EC0FFD1FE90DF11D80818033A1F3D9
:1004F000F7FE0AC0B92CB394892D90E0C816D9062E
:1005000014F0992401C09C18F7FC03C025E030E0EA
:1005100009C01C141D041CF021E030E003C096014A
:100520002F5F3F4F112311F02F5F3F4F992029F08C
:10053000892D90E00196280F391F882D90E028170B
:10054000390714F0882401C0821A4F2C5524C201A7
:1005500089709070892B39F008C080E290E0B30177
:100560000E9425158A948820C1F7112329F0812F34
:1005700090E0B3010E94251543FE07C008C080E348
:1005800090E0B3010E9425158A948820C1F7F7FEF8
:1005900046C08601D7FE02C000E010E07601089454
:1005A000E11CF11CE01AF10A41E050E04C0F5D1F24
:1005B000E40EF51E26014B185108892D90E0AA245F
:1005C000BB24A81AB90A5FEF0F3F150729F48EE282
:1005D00090E0B3010E942515C016D10634F04016F4
:1005E00051061CF4F701808101C080E301501040E6
:1005F0000894E11CF11C0A151B052CF090E0B301D6
:100600000E942515E0CF0C151D0539F49A8196330B
:1006100018F4953311F424FE81E390E04BC08A81F5
:10062000813309F00F7E90E0B3010E9425159920D7
:10063000A1F08EE290E0B3010E94251512E0E1E006
:10064000F0E0EC0FFD1FE10FF11D1F5F808190E0D6
:10065000B3010E9425159A9491F744FC03C085E6E6
:1006600090E002C085E490E0B3010E942515D7FC1C
:1006700005C0C114D10441F404FF06C0D094C19454
:10068000D108D3948DE201C08BE290E0B3010E94C7
:10069000251580E305C08F5F26EF3FEFC20ED31E06
:1006A0003AE0C316D104BCF790E0B3010E942515CF
:1006B000C601C096B3010E942515CC84DD8452C1C9
:1006C000933631F0933799F0933509F059C023C030
:1006D000F601808189835E010894A11CB11C22E08F
:1006E00030E0C20ED31E21E0E22EF12C12C0F60142
:1006F000A080B18016FD03C06FEF7FEF02C0692DAF
:1007000070E022E030E0C20ED31EC5010E941A152F
:100710007C011F7713C0F601A080B18016FD03C0D5
:100720006FEF7FEF02C0692D70E022E030E0C20E73
:10073000D31EC5010E940F157C01106813FF07C06E
:100740001BC080E290E0B3010E9425158A94882D99
:1007500090E0E816F906A8F30FC0F50117FD8591A2
:1007600017FF81915F0190E0B3010E942515811070
:100770008A940894E108F108E114F10471F7F2C0D9
:10078000943611F0993689F517FF08C0F6012081DB
:1007900031814281538184E090E00AC0F60180817A
:1007A00091819C01442737FD4095542F82E090E0D1
:1007B000C80ED91E9FE6F92EF12257FF09C05095A9
:1007C0004095309521953F4F4F4F5F4F90E8F92A64
:1007D000CA01B901AE014F5F5F4F2AE030E00E94CD
:1007E0008A15E82EE889EE1A41C0953721F41F7E5C
:1007F0002AE030E01CC0197F9F3661F0903720F46A
:10080000983509F0B2C00FC0903739F0983709F029
:10081000ACC004C028E030E00AC0106114FD1460D0
:1008200020E130E004C014FD166020E132E017FF43
:1008300008C0F601608171818281938144E050E0BB
:1008400008C0F60180819181BC0180E090E042E027
:1008500050E0C40ED51EAE014F5F5F4F0E948A1557
:10086000E82E5889E51A8FE7F82EF122F6FE0BC024
:100870008EEFF822E91438F4F4FE07C0F2FC05C04C
:100880009FEEF92202C01E2D01C0192DF4FE0DC0ED
:10089000FE01EE0DF11D8081803319F4E9EEFE2298
:1008A00008C01F5FF2FE05C003C08F2D867809F0D7
:1008B0001F5F0F2DF3FC14C0F0FE0FC0181510F0D1
:1008C0009E2C0BC09E2C980C911A182D06C080E20D
:1008D00090E0B3010E9425151F5F1815C0F304C0F6
:1008E000181510F4811A01C0882404FF0FC080E39A
:1008F00090E0B3010E94251502FF1DC001FD03C059
:1009000088E790E00EC088E590E00BC0802F8678E5
:1009100091F001FF02C08BE201C080E2F7FC8DE2A2
:1009200090E0B3010E94251506C080E390E0B3017A
:100930000E9425159A94E914C0F3EA94E1E0F0E0EE
:10094000EC0FFD1FEE0DF11D808190E0B3010E94C0
:100950002515EE2091F706C080E290E0B3010E94D9
:1009600025158A948820C1F799CCF3016681778197
:10097000CB016196E2E10C940814806480937C00C2
:10098000EAE7F0E0808187608083808180688083EF
:1009900080818064808380E480937B0011B8089517
:1009A000807480937C00089520917C008770907003
:1009B000287F282B20937C0080917A00806480938C
:1009C0007A0080917A0084FFFCCF80917A00806168
:1009D00080937A002091780030917900C9010895C0
:1009E000806480937C000895EF92FF920F931F9391
:1009F000482FCB0120E16030720714F08FEF9FE0A9
:100A00007C010027F7FC0095102F80912B008F7E32
:100A100080932B00842F80630E944608D801C70171
:100A200024E0B695A795979587952A95D1F70E94CA
:100A300046088FE090E0A0E0B0E0E822F9220A2327
:100A40001B238E2D8295807F0E94460880912B006B
:100A5000806180932B001F910F91FF90EF9008957C
:100A6000CF92DF92EF92FF920F931F93883419F089
:100A70008C3491F519C04093DF015093E0016093ED
:100A8000E1017093E2010093E3011093E4012093EC
:100A9000E5013093E601C092E701D092E801E092CF
:100AA000E901F092EA0118C04093EB015093EC0188
:100AB0006093ED017093EE010093EF011093F0014C
:100AC0002093F1013093F201C092F301D092F4012E
:100AD000E092F501F092F6011F910F91FF90EF90D7
:100AE000DF90CF9008959C01261B370BC901089514
:100AF000DF92EF92FF920F931F93CF93DF93D42E49
:100B0000861B970BAA2797FDA095BA2FBC01CD0194
:100B10000E9417117B018C0167EF71E0CFE8D1E0F3
:100B2000E0E0F0E0E331F105C9F48CE4D81659F4C3
:100B3000C701D8018093430290934402A0934502D9
:100B4000B093460223C0C701D8018093DB01909384
:100B5000DC01A093DD01B093DE0118C0ACE4DA162D
:100B600069F4DB0114962D913D914D915C9117979D
:100B70002D933D934D935C93139708C08C819D8179
:100B8000AE81BF8188839983AA83BB8331966C5FD2
:100B90007F4F2496E431F10529F6DF91CF911F9123
:100BA0000F91FF90EF90DF900895FF920F931F93A6
:100BB000CF93DF93F42E0E947805C7EFD1E00FE8C2
:100BC00011E020E030E0B901882777FD8095982F6B
:100BD0002CE4F21639F40E941711288139814A81D8
:100BE0005B8107C00E941711F80120813181428189
:100BF00053810E94B60F0E94E4109B0124960C5F63
:100C00001F4FF2E0C734DF07F1F6CB01DF91CF9140
:100C10001F910F91FF9008959C01442737FD409547
:100C2000542F6C3491F4CA01B9010E94171120911C
:100C300043023091440240914502509146020E9485
:100C4000B50F0E94E410CB010895CA01B9010E94BA
:100C500017112091DB013091DC014091DD015091B1
:100C6000DE010E94B50F0E94E410CB0108956F923F
:100C70007F928F929F92AF92BF92CF92DF92EF922C
:100C8000FF920F931F93CF93DF93EB018A01883478
:100C900071F08C3409F057C0CB01BA014CE40E94CA
:100CA000D5057C01C8016CE40E940C060AC0CB018A
:100CB000BA0148E40E94D5057C01C80168E40E949D
:100CC0000C065C01C01BD10BBE01882777FD809507
:100CD000982F0E94171120E030E046E852E40E946D
:100CE000CF113B014C010027F7FC0095102FC801E4
:100CF000B7010E94171120E030E040E850E40E9464
:100D0000CF119B01AC01C401B3010E94B60F7B015E
:100D10008C01CC24B7FCC094DC2CC601B5010E9428
:100D2000171120E030E040EE5FE30E94CF119B01FD
:100D3000AC01C801B7010E94B60F0E94E410709385
:100D40004802609347028091470290914802DF91E8
:100D5000CF911F910F91FF90EF90DF90CF90BF90B8
:100D6000AF909F908F907F906F900895CF93DF9377
:100D70000097B1F4809128008F7D8093280080E651
:100D80000E94460880E00E944608C82FD0E080E01C
:100D90000E944608682F70E08091280080621CC085
:100DA000019729F0C0E0D0E060E070E017C08091CA
:100DB00028008F7E8093280080E60E94460880E00D
:100DC0000E944608C82FD0E080E00E944608682FA5
:100DD00070E0809128008061809328003C2F2227BA
:100DE000442737FD4095542FCB01AA2797FDA095A6
:100DF000BA2F282B392B4A2B5B2BB901CA01DF9163
:100E0000CF910895009771F4809128008F7D809391
:100E1000280080E20E94460880912800806280932A
:100E200028000895019769F4809128008F7E8093AF
:100E3000280080E20E94460880912800806180930B
:100E4000280008959C0180912700806280932700EC
:100E50008091270080618093270080912800806224
:100E600080932800809128008061809328002115BC
:100E7000310509F5809128008F7D8093280088E84E
:100E80000E94460883E00E94460880912800806204
:100E900080932800809128008F7D8093280080E92E
:100EA0000E94460882E00E944608809128008062E5
:100EB0008093280008952130310501F580912800A4
:100EC0008F7E8093280088E80E94460883E00E9475
:100ED0004608809128008061809328008091280036
:100EE0008F7E8093280080E90E94460882E00E945D
:100EF00046088091280080618093280008950F9310
:100F00001F93182F80912A00806880932A00809177
:100F10002B00806880932B008CB583608CBD809102
:100F20002B008F7780932B0086E00E944608812F4C
:100F30008295880F880F807C0E944608082F10E059
:100F400080E00E94460890912B00906890932B00BF
:100F50000F701070102F0027080F111D20913A01FB
:100F600030913B010217130774F0021B130BB801F9
:100F7000882777FD8095982F0E9417112EEA37E475
:100F800041E65EE30DC0201B310BB901882777FDD8
:100F90008095982F0E9417112EEA37E441E65EEB08
:100FA0000E94CF110E94E410972F8CB58D7F8CBDCD
:100FB000862F1F910F9108950F931F938C010E940C
:100FC000F004C8010E94D404A0E0B0E0BC01CD014F
:100FD0000E94151120E030E040EA5BE30E94CF114F
:100FE0002DEC3CEC4CE85FEB0E9432129B01AC0113
:100FF000CA01B90120E030E042E852E40E94CF117A
:1010000023E333E343E350E40E94CF110E94E41052
:10101000CB011F910F91089580EB84B981E58CBDC0
:1010200087B18F6787B980912A00806180932A00F9
:1010300080912B008F7E80932B0080912B0080610C
:1010400080932B0080912A00806880932A008091F1
:101050002B008F7780932B0080912B0080688093EA
:101060002B008091270080628093270080912700C9
:1010700080618093270080912800806280932800FF
:101080008091280080618093280008958EBD0DB462
:1010900007FEFDCF8EB50895603022EC720721E087
:1010A000820720E0920741F06058754280409040EE
:1010B00019F487E790E002C089E090E09093CD00BA
:1010C0008093CC008091C90088618093C900809191
:1010D000CA0086608093CA000895982F02C080914C
:1010E000CE008091C80087FDFACF9093CE0080910A
:1010F000C80085FFFCCF08958091C80087FFFCCF12
:101100008091CE0008959C0197FD08C083E090E097
:10111000B9010E94F40482E090E00AC066277727B4
:10112000681B790B82E090E00E94F40483E090E079
:1011300060E070E00E94F404089580912800877FA9
:1011400080932800809128008F77809328008091D9
:1011500027008D7F80932700809127008B7F8093CD
:10116000270080912700877F8093270080912700A8
:101170008F778093270080912600877F80932600B9
:10118000809126008F7780932600089586B18A3358
:1011900019F48AE390E005C086B1823B31F482EB1A
:1011A00090E090936D0180936C0180916C0190911F
:1011B0006D018A33910521F0823B910571F407C0DE
:1011C00080E090E060E070E00E94F50D08958AE50F
:1011D00090E060E070E00E94F50D089584B58260B3
:1011E00084BDEEE6F0E080818260808385B5856015
:1011F00085BD83EB87BD809128008E7F809328007A
:1012000080912700816080932700809126008E7F47
:1012100080932600789408951F920F920FB60F9234
:1012200011242F933F934F935F936F937F938F93EB
:101230009F93AF93BF93CF93DF93EF93FF9382E09E
:1012400090E00E94D404909378018093770183E02A
:1012500090E00E94D40490937A0180937901609188
:101260004A0170914B0180914801909149010E947F
:10127000750C86E090E00E94DC0790934701809314
:1012800046018C3891059CF480917D0190917E01FE
:10129000A0917F01B091800187529240A040B04060
:1012A00034F081E090E09093840180938301C0E06A
:1012B000D0E087E090E00E94DC07909345018093A6
:1012C000440120915F0230916002280F391F309352
:1012D000600220935F022196C530D10551F781E06D
:1012E0002D3B38075CF1C90165E070E00E94B7133F
:1012F0009B0170934501609344016D38710534F48E
:1013000081E090E0909382018093810180917D0142
:1013100090917E01A0917F01B09180018F3791055E
:10132000A105B1055CF48091420190914301281719
:10133000390724F430934301209342012091810125
:10134000309182012115310599F080917D019091B4
:101350007E01A0917F01B09180010196A11DB11D78
:1013600080937D0190937E01A0937F01B0938001D3
:101370001092600210925F02ADB7BEB752970FB6DF
:10138000F894BEBF0FBEADBFEDB7FEB7319680E09B
:1013900091E012969C938E931197809146019091C3
:1013A0004701938382833583248380914401909104
:1013B00045019783868380914201909143019187F3
:1013C000808780917D0190917E01A0917F01B091F5
:1013D000800182879387A487B58780914801909187
:1013E00049019787868780914A0190914B01918BA3
:1013F000808B0E945115809128008E7F8093280059
:1014000080916E0190916F01019690936F0180938E
:101410006E01809128008160809328008DB79EB76F
:1014200042960FB6F8949EBF0FBE8DBFFF91EF910D
:10143000DF91CF91BF91AF919F918F917F916F91EC
:101440005F914F913F912F910F900FBE0F901F9082
:1014500018956F927F928F929F92AF92BF92CF9288
:10146000DF92EF92FF920F931F93CF93DF930E942F
:10147000A30F60E072EC81E090E00E944C0882E0F3
:1014800090E00E94BD0480E090E00E94BD0483E0F3
:1014900090E00E94BD0487E090E00E94BD0486E0D9
:1014A00090E00E94BD040E940C0860E072EC81E0B4
:1014B00090E00E94300F8CE440E050E066E872E477
:1014C00000E010E020E830E40F2EF0E0CF2EF0E056
:1014D000DF2EF0EEEF2EFFE3FF2EF02D0E94300501
:1014E00088E440E050E066E872E400E010E020E8C4
:1014F00030E40E9430050E94EE08C8ECD0E0EDE731
:101500006E2E712C0CEC11E071E0872E912C68EEA0
:10151000A62E63E0B62E55E0C52ED12C44EAE42E6B
:1015200041E0F42E87E090E060E070E00E94610FFF
:1015300080918301909184012091810130918201F9
:10154000892BB1F4232B09F449C080914201909179
:101550004301880F991F9093490180934801D093CC
:101560004B01C0934A0186E090E060E070E058C013
:10157000232BA1F18091420190914301880F991F83
:10158000909349018093480170924B0160924A0107
:1015900088E097E0F8013197F1F70197D9F786E0F5
:1015A00090E06FEF70E00E94610F90928601809250
:1015B0008501109284011092830110928201109291
:1015C000810110927D0110927E0110927F01109294
:1015D0008001B0924301A0924201A4CF8091850185
:1015E00090918601892B81F088EE93E0F801319784
:1015F000F1F70197D9F7D0934B01C0934A011092AC
:101600008601109285018ECFD0924901C092480187
:10161000F0924B01E0924A0186E090E06FEF70E0BB
:101620000E94610F7FCF2F923F924F925F926F92F5
:101630007F928F929F92AF92BF92CF92DF92EF9262
:10164000FF920F931F93DF93CF93CDB7DEB71901AE
:101650002A010E94B50F3B014C016D897E898F895B
:10166000988DA60195010E94B50F9B01AC01C401A4
:10167000B3010E94CF113B014C01C801B701A20187
:1016800091010E94B50F9B01AC01C401B3010E94FE
:101690007C10A60195010E94B60FCF91DF911F919A
:1016A0000F91FF90EF90DF90CF90BF90AF909F9001
:1016B0008F907F906F905F904F903F902F90089504
:1016C0008F929F92AF92BF92CF92DF92EF92FF9252
:1016D0000F931F9300D000D08DB69EB60894811C46
:1016E000911CAA2797FDA095BA2FBC01CD010E949D
:1016F000171120E030E044EB52E4F4012083318301
:101700004283538320E030E044E853E40F2EF0E0BE
:10171000EF2EF0E4FF2EF7E20F2FF4E41F2FF02D51
:101720000F2EF0E0AF2EF0E0BF2EF0E0CF2EF0E075
:10173000DF2EF02D0E94130B0F900F900F900F9043
:101740000E94E410CB011F910F91FF90EF90DF906A
:10175000CF90BF90AF909F908F9008958F929F925F
:10176000AF92BF92CF92DF92EF92FF920F931F93AF
:1017700000D000D08DB69EB60894811C911CAA277B
:1017800097FDA095BA2FBC01CD010E94171120E052
:1017900030E040E050E0F401208331834283538302
:1017A00020E030E047E853E40F2EF0E0EF2EF0E4C5
:1017B000FF2EFEE10F2FF4E41F2FF02D0F2EF0E08F
:1017C000AF2EF0E0BF2EF4EBCF2EF2ECDF2EF02D9B
:1017D0000E94130B0F900F900F900F900E94E41037
:1017E000CB011F910F91FF90EF90DF90CF90BF90B2
:1017F000AF909F908F90089520915801309159019A
:1018000040915A0150915B010E947C1020E030E031
:1018100044E353E40E94CF110E94E410CB010895E9
:10182000681B790B77FF06C080E06B5F7F4F3CF051
:1018300081E0089580E0663071050CF481E0089540
:1018400088349105D1F08C349105A9F5613071058A
:1018500049F480E090E060E078E00E94F40481E0E8
:1018600090E016C0672B39F581E090E060E078E009
:101870000E94F40480E090E00BC06130710569F4CF
:1018800082E090E060E078E00E94F40483E090E081
:1018900060E070E00E94F4040895672B61F483E037
:1018A00090E060E078E00E94F40482E090E060E084
:1018B00070E00E94F404089580E090E060E070E041
:1018C0000E94F40481E090E060E070E00E94F40483
:1018D00082E090E060E070E00E94F40483E090E039
:1018E00060E070E00E94F40408952F923F924F92BE
:1018F0005F926F927F928F929F92AF92BF92CF92A0
:10190000DF92EF92FF920F931F93DF93CF93CDB7A8
:10191000DEB768970FB6F894DEBF0FBECDBF7C016F
:101920005B0182E090E00E94F00482E090E00E947F
:10193000D4040E94600B988F8F8B83E090E00E940C
:10194000F00483E090E00E94D4040E94AE0B9A83DE
:1019500089830027F7FC0095102FC801B7010E946A
:1019600017116F87788B898B9A8BCC24B7FCC09426
:10197000DC2CC601B5010E94171120914C01309159
:101980004D0140914E0150914F010E94B50F6B8B5C
:101990007C8B8D8B9E8B609050017090510180905C
:1019A0005201909053012090540130905501409085
:1019B0005601509057016F85788989899A899B01D2
:1019C000AC010E94CF117B018C016B897C898D89D0
:1019D0009E899B01AC010E94CF119B01AC01C80103
:1019E000B7010E94B60F7B018C01C401B301A401B1
:1019F00093010E94CF119B01AC01C801B7010E9465
:101A0000B50F7B018C01C201B101A20191010E94BD
:101A1000CF119B01AC01C801B7010E94B50F7B013A
:101A20008C01C401B301A40193010E94B60FA2016D
:101A300091010E94CF119B01AC01C801B7010E9426
:101A40007C105B016C01A60195010E94CF119B01E6
:101A5000AC0160E070E080E89FE30E94B50F0E9457
:101A600082127B018C0117FB109517F91095C801A4
:101A7000B701A60195010E9429106B877C878D878D
:101A80009E878091580190915901A0915A01B0917F
:101A90005B018F839887A987BA876B897C898D8939
:101AA0009E892F85388949895A890E9429106B831C
:101AB0007C838D839E83C401B301A80197010E949A
:101AC000CF117B018C01C201B101A60195010E94D9
:101AD000CF119B01AC01C401B3010E94B60F9B0161
:101AE000AC01C801B7010E9429109B01AC016B81B8
:101AF0007C818D819E810E94B50F20E030E044E31F
:101B000053E40E94CF112F81388549855A850E9460
:101B10007C100E94E4109B01AC018CE4B9014F8958
:101B2000588D0E9437067C016B857C858D859E854E
:101B300020E030E044E353E40E94CF112F81388548
:101B400049855A850E947C100E94E4109B01AC01DB
:101B500088E4B90149815A810E9437068C01F7FC5B
:101B600008C080E090E0B7010E94F40481E090E0BA
:101B70000AC0662777276E197F0981E090E00E94EE
:101B8000F40480E090E060E070E00E94F40417FD4F
:101B900008C083E090E0B8010E94F40482E090E085
:101BA00007C082E090E0B8010E94F40483E090E076
:101BB00060E070E00E94F40468960FB6F894DEBF0F
:101BC0000FBECDBFCF91DF911F910F91FF90EF908E
:101BD000DF90CF90BF90AF909F908F907F906F904D
:101BE0005F904F903F902F900895AF92BF92CF9209
:101BF000DF92EF92FF920F931F93CF93DF936C01CD
:101C00005B0182E090E00E94F00482E090E00E949C
:101C1000D4040E94600B7C0183E090E00E94F004F9
:101C200083E090E00E94D4040E94AE0B8C018CE40F
:101C3000B601A7010E943706EC0188E4B501A801AE
:101C40000E9437068C01D7FD08C080E090E0BE01FD
:101C50000E94F40481E090E00AC0662777276C1B9D
:101C60007D0B81E090E00E94F40480E090E060E071
:101C700070E00E94F40417FD08C083E090E0B80112
:101C80000E94F40482E090E007C082E090E0B80196
:101C90000E94F40483E090E060E070E00E94F404AD
:101CA000DF91CF911F910F91FF90EF90DF90CF9038
:101CB000BF90AF90089580E090E060E070E00E94F7
:101CC000F50D80E090E00E94220780E090E00E9405
:101CD000020781E090E00E94220781E090E00E94EC
:101CE000020708952BE130E0AC01429FC001439F01
:101CF000900D529F900D112466E670E00E94B7137C
:101D0000CB0108959C01220F331F220F331F280F90
:101D1000391FC9010895CF93DF93EC0180912B0007
:101D20008F7780932B0086E00E944608209711F45D
:101D300080E00DC0C130D10511F481E008C02297C8
:101D400029F0C0E0D0E040E050E00AC082E00E940C
:101D50004608C82FD0E080E00E944608482F50E097
:101D600080912B00806880932B003C2F2227242B0E
:101D7000352BC901DF91CF910895EF92FF920F9318
:101D80001F93009759F580E090E00E94B60660939B
:101D90007702709378028093790290937A0220916F
:101DA0008701309188014091890150918A017B011E
:101DB0008C01E21AF30A040B150BE0927B02F092FD
:101DC0007C0200937D0210937E02609387017093E2
:101DD00088018093890190938A0139C0019759F550
:101DE00081E090E00E94B6066093770270937802DB
:101DF0008093790290937A0220918B0130918C012B
:101E000040918D0150918E017B018C01E21AF30A01
:101E1000040B150BE0927B02F0927C0200937D0292
:101E200010937E0260938B0170938C0180938D01DF
:101E300090938E010CC08FEF9FEFAFEFBFEF8093B9
:101E40007B0290937C02A0937D02B0937E028091EE
:101E50007B0290917C021F910F91FF90EF9008956B
:101E60009B01AC0184E0220F331F441F551F8A954C
:101E7000D1F760E070E489E191E00E94CA1321503B
:101E800030403093C5002093C40088E18093C100A6
:101E900086E08093C2000895982F8091C00085FF4E
:101EA000FCCF9093C6000895FC0107C08091C0004C
:101EB00085FFFCCF9093C600319690819923B1F7AE
:101EC00008950F931F93DF93CF93CDB7DEB7649739
:101ED0000FB6F894DEBF0FBECDBF2DB73EB728506A
:101EE00030400FB6F8943EBF0FBE2DBFEDB7FEB722
:101EF00031968E010F5F1F4FADB7BEB712961C9380
:101F00000E93119727E131E03383228395838483F5
:101F1000778366830E9466152DB73EB7285F3F4FD3
:101F20000FB6F8943EBF0FBE2DBFC8010E94540FDC
:101F300064960FB6F894DEBF0FBECDBFCF91DF9190
:101F40001F910F9108958CE591E090938202809308
:101F5000810260E072EC81E090E00E94300F089511
:101F60000E946D0880E090E008955058BB27AA2792
:101F70000ED0D4C1C5D130F0CAD120F031F49F3F8A
:101F800011F41EF495C10EF4E095E7FB8BC1E92F27
:101F9000D6D180F3BA17620773078407950718F044
:101FA00071F49EF5EEC10EF4E0950B2EBA2FA02D24
:101FB0000B01B90190010C01CA01A0011124FF27F6
:101FC000591B99F0593F50F4503E68F11A16F040F1
:101FD000A22F232F342F4427585FF3CF46953795F0
:101FE0002795A795F0405395C9F77EF41F16BA0BB5
:101FF000620B730B840BBAF09150A1F0FF0FBB1F63
:10200000661F771F881FC2F70EC0BA0F621F731FAB
:10201000841F48F4879577956795B795F7959E3F08
:1020200008F0B3CF9395880F08F09927EE0F979596
:102030008795089565D158F080E891E009F49EEF06
:1020400066D128F040E851E059F45EEF09C030C194
:1020500098C1E92FE07873D168F3092E052AC1F3FE
:10206000261737074807590738F00E2E07F8E025DE
:1020700069F0E025E0640AC0EF6307F8009407FA0E
:10208000DB01B9019D01DC01CA01AD01EF9343D031
:1020900045D10AD05F91552331F02BED3FE049E463
:1020A00050FD49EC63CF0895DF93DD27B92FBF774B
:1020B00040E85FE31616170648075B0710F4D92FB0
:1020C00067D19F938F937F936F935AD2ECE7F0E0A1
:1020D000F2D024D12F913F914F915F916CD1DD23AC
:1020E00049F09058A2EA2AED3FE049EC5FE3D0784E
:1020F0005D274DDFDF9112C10CD010C108D140F037
:10210000FFD030F021F45F3F19F0CCC051113AC13B
:10211000CFC015D198F39923C9F35523B1F3951B7B
:10212000550BBB27AA2762177307840738F09F5FF8
:102130005F4F220F331F441FAA1FA9F333D00E2E67
:102140003AF0E0E830D091505040E695001CCAF7D4
:1021500029D0FE2F27D0660F771F881FBB1F261799
:1021600037074807AB07B0E809F0BB0B802DBF016C
:10217000FF2793585F4F2AF09E3F510568F092C0A9
:1021800001C15F3FECF3983EDCF386957795679548
:10219000B795F7959F5FC9F7880F911D969587951D
:1021A00097F90895E1E0660F771F881FBB1F62173C
:1021B00073078407BA0720F0621B730B840BBA0BFA
:1021C000EE1F88F7E095089504D06894B111DAC045
:1021D0000895BDD088F09F5790F0B92F9927B75137
:1021E000A0F0D1F0660F771F881F991F1AF0BA95DB
:1021F000C9F712C0B13081F0C4D0B1E00895C1C0B8
:10220000672F782F8827B85F39F0B93FCCF38695D0
:1022100077956795B395D9F73EF49095809570952D
:1022200061957F4F8F4F9F4F0895E89409C097FBAA
:102230003EF490958095709561957F4F8F4F9F4F9D
:102240009923A9F0F92F96E9BB279395F6958795E1
:1022500077956795B795F111F8CFFAF4BB0F11F4A4
:1022600060FF1BC06F5F7F4F8F4F9F4F16C088234B
:1022700011F096E911C0772321F09EE8872F762F81
:1022800005C0662371F096E8862F70E060E02AF0C2
:102290009A95660F771F881FDAF7880F96958795AE
:1022A00097F9089597F99F6780E870E060E00895D6
:1022B0009FEF80EC0895DF93CF931F930F93FF92CE
:1022C000EF92DF927B018C01689405C0DA2EEF015A
:1022D00072D0FE01E894A5912591359145915591D3
:1022E000AEF3EF0154DEFE019701A801DA9479F70D
:1022F000DF90EF90FF900F911F91CF91DF910895A4
:1023000000240A94161617061806090608950024D4
:102310000A9412161306140605060895092E03944E
:10232000000C11F4882352F0BB0F40F4BF2B11F4C2
:1023300060FF04C06F5F7F4F8F4F9F4F089557FD21
:102340009058440F551F59F05F3F71F04795880F23
:1023500097FB991F61F09F3F79F0879508951216BA
:1023600013061406551FF2CF4695F1DF08C0161666
:1023700017061806991FF1CF869571056105089417
:102380000895E894BB2766277727CB0197F908952E
:102390009B01AC0160E070E080E89FE3ADCE0BD024
:1023A000BDCFAEDF28F0B3DF18F0952309F07ACF68
:1023B0007FCF1124E7CFC3DFA0F3959FD1F3950F13
:1023C00050E0551F629FF001729FBB27F00DB11DB9
:1023D000639FAA27F00DB11DAA1F649F6627B00D49
:1023E000A11D661F829F2227B00DA11D621F739F32
:1023F000B00DA11D621F839FA00D611D221F749F40
:102400003327A00D611D231F849F600D211D822F86
:10241000762F6A2F11249F5750408AF0E1F08823CD
:102420004AF0EE0FFF1FBB1F661F771F881F9150DA
:102430005040A9F79E3F510570F034CFA3CF5F3FC6
:10244000ECF3983EDCF3869577956795B795F7950D
:10245000E7959F5FC1F7FE2B880F911D9695879595
:1024600097F90895FA01EE0FFF1F30962105310507
:1024700099F16115710561F48038BFE39B0749F15B
:1024800068949038810561F08038BFEF9B0741F078
:10249000992342F5FF3FE1053105210511F1E8944B
:1024A0000894E795D901AA2329F4AB2FBE2FF85F32
:1024B000D0F310C0FF5F70F4A695E0F7F73950F045
:1024C00019F0FF3A38F49F779F930CD00F9007FCD8
:1024D000905808953EF0ECCE60E070E080E89FE315
:1024E00008954FE79F775F934F933F932F93CCD0FF
:1024F0002F913F914F915F9152DF4AC011F40EF43A
:10250000D7CE72C024DFD0F39923D9F3CEF39F57EF
:10251000550B87FF77D00024A0E640EA9001805851
:102520005695979528F4805C660F771F881F20F0DA
:1025300026173707480730F4621B730B840B2029DA
:1025400031294A2BA69517940794202531254A272F
:1025500058F7660F771F881F20F0261737074807A0
:1025600030F4620B730B840B200D311D411DA095BF
:1025700081F7B901842F9158880F96958795089512
:102580009B01AC010CCF19F40EF08CCEFACE90CE9C
:10259000DEDEC8F39638C0F707F80F92E8942BE315
:1025A0003AEA48EB5FE709DF0F920F920F924DB7BF
:1025B0005EB70F92A9D0E9EAF0E07DDE4F915F911E
:1025C000EF91FF91E595EE1FFF1F49F0FE57E06880
:1025D0004427EE0F441FFA95E1F74195550B1BD0A8
:1025E0000F9007FED5CE08959F3F31F0915020F413
:1025F000879577956795B795880F911D96958795DF
:1026000097F9089591505040660F771F881FD2F7B1
:10261000089548CEE9CF9BDEE8F39923D9F3940FD0
:10262000511DBBF39150504094F059F0882332F083
:10263000660F771F881F91505040C1F79E3F51058C
:1026400044F7880F911D9695879597F908955F3FF8
:10265000ACF0983E9CF0BB27869577956795B7952B
:1026600008F4B1609395C1F7BB0F58F711F460FF00
:10267000E8CF6F5F7F4F8F4F9F4FE3CF83CE0EF03A
:10268000B3CF16CE68940ECE62DEC8F39923D1F391
:10269000C6F3DF93CF931F930F93FF92C92FDD27CC
:1026A00088232AF02197660F771F881FDAF720E02A
:1026B00030E040E85FEB9FE3883920F0803E30F067
:1026C00021968F7753DCE1EDF0E003C04FDCEEEFB5
:1026D000F0E0F1DD8B01BE01EC01FB2E6F577109BB
:1026E0007595771F880B990BA2DD28E132E741E34E
:1026F0005FE361DEAF2D9801AE01FF900F911F9156
:10270000CF91DF9144DC0ACEFA01DC01AA0FBB1F96
:102710009B01AC01BF5728F4222733274427507868
:102720001FC0B75188F4AB2F0024469537952795E5
:10273000011CA395D2F3002069F0220F331F441F20
:10274000B395DAF30DD011CC61307105A0E88A079A
:10275000B94630F49B01AC0166277727882790782B
:10276000309621F02083318342835383089597FB71
:10277000092E07260AD077FD04D065D006D00020A8
:102780001AF4709561957F4F0895F6F790958195AD
:102790009F4F0895A1E21A2EAA1BBB1BFD010DC07D
:1027A000AA1FBB1FEE1FFF1FA217B307E407F50701
:1027B00020F0A21BB30BE40BF50B661F771F881FDD
:1027C000991F1A9469F760957095809590959B0173
:1027D000AC01BD01CF0108952F923F924F925F92BD
:1027E0006F927F928F929F92AF92BF92CF92DF9221
:1027F000EF92FF920F931F93CF93DF93CDB7DEB786
:10280000CA1BDB0B0FB6F894DEBF0FBECDBF099419
:102810002A88398848885F846E847D848C849B8470
:10282000AA84B984C884DF80EE80FD800C811B817E
:10283000AA81B981CE0FD11D0FB6F894DEBF0FBEAD
:10284000CDBFED010895AA1BBB1B51E107C0AA1F14
:10285000BB1FA617B70710F0A61BB70B881F991F41
:102860005A95A9F780959095BC01CD01089528301F
:1028700008F027E03327DA01990F311D87FD9160B9
:1028800000966105710539F432602E5F3D9330E3A7
:102890002A95E1F708959F3F30F080387105610572
:1028A00009F03C5F3C5F3D93913008F08068911DDA
:1028B000DF93CF931F930F93FF92EF92192F987F7F
:1028C0009695E92F96959695E90FFF27E357FE4FCA
:1028D00099273327EE24FF24A701E70105900894E8
:1028E000079428F4360FE71EF81E491F511D660F86
:1028F000771F881F991F0694A1F70590079428F465
:10290000E70EF81E491F561FC11D770F881F991F1C
:10291000661F0694A1F70590079428F4F80E491F46
:10292000561FC71FD11D880F991F661F771F06945A
:10293000A1F70590079420F4490F561FC71FD81F11
:10294000990F661F771F881F0694A9F78491109529
:10295000177041F0D695C79557954795F794E7942A
:102960001A95C1F7E3E3F1E068941590159135915C
:102970006591959105907FE27395E118F10A430BFB
:10298000560BC90BD009C0F7E10CF11E431F561FAF
:10299000C91FD01D7EF4703311F48A95E6CFE894F8
:1029A000015030F0080F0AF40027021708F4202F16
:1029B0002395022F7A3328F079E37D932A95E9F75E
:1029C00010C07D932A9589F606949795679537955B
:1029D00017951794E118F10A430B560BC90BD00950
:1029E00098F023957E9173957A3308F070E37C9389
:1029F0002013B8F77E9170617D9330F0839571E379
:102A00007D9370E32A95E1F71124EF90FF900F91E9
:102A10001F91CF91DF91992787FD90950895FC0133
:102A20000590615070400110D8F7809590958E0FF9
:102A30009F1F0895FC016150704001900110D8F76C
:102A4000809590958E0F9F1F08950F931F93CF939E
:102A5000DF938C01EB018B8181FF1BC082FF0DC0D6
:102A60002E813F818C819D812817390764F4E8818C
:102A7000F9810193F983E88306C0E885F985802F01
:102A80000995892B31F48E819F8101969F838E83D6
:102A900002C00FEF1FEFC801DF91CF911F910F917F
:102AA0000895A0E0B0E0E7E5F5E10C94FC13FE0129
:102AB0003596619171918091810290918202AF016E
:102AC0000E9436012096E2E00C941814AEE0B0E0CB
:102AD000ECE6F5E10C94FA130D891E8986E08C83EF
:102AE0001A8309838FEF9FE79E838D839E01275E64
:102AF0003F4FCE0101966F89788DA9010E94360162
:102B00002F813885020F131FF80110822E96E4E002
:102B10000C941614FA01AA27283051F1203181F1C2
:102B2000E8946F936E7F6E5F7F4F8F4F9F4FAF4FD5
:102B3000B1E03ED0B4E03CD0670F781F891F9A1FE8
:102B4000A11D680F791F8A1F911DA11D6A0F711D9C
:102B5000811D911DA11D20D009F468943F912AE0A8
:102B6000269F11243019305D3193DEF6CF01089590
:102B7000462F4770405D4193B3E00FD0C9F7F6CFC1
:102B8000462F4F70405D4A3318F0495D31FD405289
:102B9000419302D0A9F7EACFB4E0A695979587951F
:102BA00077956795BA95C9F70097610571050895FE
:102BB0009B01AC010A2E06945795479537952795AA
:102BC000BA95C9F7620F731F841F951FA01D089542
:042BD000F894FFCFA7
:102BD40025640925640925640925640925640925F2
:102BE400640925640D0A00536574736572766F2851
:102BF40025642C25303364290A0D002D004C000077
:102C04008642000080400000E03FFF07C800C80083
:102C14000010E803E803E8030500A40135DE0E43D1
:102C2400A86618439C841843DB0F49400000000247
:0C2C340000000000B00F000000001400C1
:00000001FF
