:100000000C94D6000C94F3000C94F3000C94F300C1
:100010000C94F3000C94F3000C94F3000C94F30094
:100020000C94F3000C94F3000C94F3000C94F30084
:100030000C94F3000C94F3000C94F3000C94F30074
:100040000C940F070C94F3000C94F3000C94F30041
:100050000C94F3000C94F3000C94F3000C94F30054
:100060000C94F3000C94F3000C94F3000C94F30044
:100070000C94F3000C94F3000C94F300084AD73B63
:100080003BCE016E84BCBFFDC12F3D6C74319ABD67
:1000900056833DDA3D00C77F11BED9E4BB4C3E918B
:1000A0006BAAAABE000000803F6E616E00696E669A
:1000B0000000407A10F35A00A0724E18090010A5F3
:1000C000D4E80000E87648170000E40B5402000072
:1000D000CA9A3B000000E1F50500008096980000F8
:1000E0000040420F000000A0860100000010270021
:1000F000000000E803000000006400000000000AA7
:1001000000000000000100000000002C76D888DC10
:10011000674F0823DFC1DFAE59E1B1B796E5E3E4ED
:1001200053C63AE651997696E8E6C28426EB898C66
:100130009B62ED407C6FFCEFBC9C9F40F2BAA56FC8
:10014000A5F490055A2AF75C936B6CF9676DC11B97
:10015000FCE0E40D47FEF520E6B500D0ED902E035F
:1001600000943577050080841E080000204E0A00A8
:100170000000C80C333333330F986E12831141EFF4
:100180008D2114893BE65516CFFEE6DB18D1844B52
:10019000381BF77C1D901DA4BBE424203284725EC2
:1001A000228100C9F124ECA1E53D270011241FBEE6
:1001B000CFEFD0E1DEBFCDBF11E0A0E0B1E0EAE6D5
:1001C000F1E202C005900D92A235B107D9F712E015
:1001D000A2E5B1E001C01D92AB32B107E1F70E9488
:1001E00030070C94B3100C940000A1E1B0E0EBEFE9
:1001F000F0E00C94B70E3C017F876E876A01FC012A
:1002000017821682838181FD03C06FEF7FEF6FC37A
:100210009E012F5F3F4F398B288BF3012381EE85A1
:10022000FF8523FD859123FF8191FF87EE8788233A
:1002300009F45AC3853251F4EE85FF8523FD85917B
:1002400023FF8191FF87EE87853229F490E0B30187
:100250000E94F00FE2CF982F10E0882499241032EA
:10026000B0F49B3269F09C3228F4903251F0933212
:1002700071F40BC09D3239F0903349F4116028C0FD
:100280001260146025C0186023C0106121C017FDE2
:100290002AC0892F80538A3078F416FF06C0FAE00E
:1002A0009F9E902C1124980E13C03AE0839E802CC0
:1002B0001124880E10620CC09E3221F416FD14C366
:1002C000106406C09C3611F4106802C0983659F4C8
:1002D000EE85FF8523FD959123FF9191FF87EE87A2
:1002E000992309F0BCCF892F8554833020F4812FC6
:1002F0008061905E07C0892F8556833008F09FC1CA
:10030000812F8F7E86FD02C076E0972E6FE3F62E5A
:10031000F822953619F4F0E4FF2A07C0963619F44E
:1003200020E8F22A02C091109A94F7FE0AC03BE33B
:10033000391518F45CE3B52E02C0B92CB39427E04C
:1003400009C047E0491520F4BB2447E0942EF7CFBD
:10035000292DBB24C60104969D878C87F6016081F8
:10036000718182819381AE014F5F5F4F0B2D0E949F
:10037000020F6C010981202E332400FF04C003FD0D
:1003800002C01DE209C0F1FE02C01BE205C0F2FC82
:1003900002C010E001C010E2C1018C709070892B86
:1003A000B9F1112311F483E001C084E0881510F045
:1003B00088240AC0881AF3FC07C080E290E0B301E9
:1003C0000E94F00F8A94C9F7112329F0812F90E041
:1003D000B3010E94F00F23FE03C009EA10E00EC033
:1003E0000DEA10E00BC0E114F10409F0805290E036
:1003F000B3010E94F00F0F5F1F4F05C0EF2CFF24C9
:10040000F0E1EF22FF24F8018491882361F714C101
:10041000F7FE12C0BC0C24FE04C08A81813309F4AB
:10042000BA941B141CF0BB24B3942DC0F8E0FB1548
:1004300050F538E0B32E27C0F6FC25C0892D90E09A
:100440008C159D054CF02CEFC2162FEFD20624F030
:1004500030E8F32A01C09A94992049F0E2E0F0E0F4
:10046000EC0FFD1FE90DF11D80818033A1F3F7FE34
:100470000AC0B92CB394892D90E0C816D90614F09F
:10048000992401C09C18F7FC03C025E030E009C0A6
:100490001C141D041CF021E030E003C096012F5F06
:1004A0003F4F112311F02F5F3F4F992029F0892DE5
:1004B00090E00196280F391F882D90E02817390702
:1004C00014F0882401C0821A4F2C5524C20189706F
:1004D0009070892B39F008C080E290E0B3010E944F
:1004E000F00F8A948820C1F7112329F0812F90E022
:1004F000B3010E94F00F43FE07C008C080E390E004
:10050000B3010E94F00F8A948820C1F7F7FE46C01D
:100510008601D7FE02C000E010E076010894E11CDD
:10052000F11CE01AF10A41E050E04C0F5D1FE40EAF
:10053000F51E26014B185108892D90E0AA24BB24F2
:10054000A81AB90A5FEF0F3F150729F48EE290E071
:10055000B3010E94F00FC016D10634F040165106C8
:100560001CF4F701808101C080E301501040089421
:10057000E11CF11C0A151B052CF090E0B3010E9450
:10058000F00FE0CF0C151D0539F49A81963318F45D
:10059000953311F424FE81E390E04BC08A818133CE
:1005A00009F00F7E90E0B3010E94F00F9920A1F0B6
:1005B0008EE290E0B3010E94F00F12E0E1E0F0E083
:1005C000EC0FFD1FE10FF11D1F5F808190E0B30173
:1005D0000E94F00F9A9491F744FC03C085E690E0E6
:1005E00002C085E490E0B3010E94F00FD7FC05C083
:1005F000C114D10441F404FF06C0D094C194D108C1
:10060000D3948DE201C08BE290E0B3010E94F00F21
:1006100080E305C08F5F26EF3FEFC20ED31E3AE0A6
:10062000C316D104BCF790E0B3010E94F00FC601DD
:10063000C096B3010E94F00FCC84DD8452C1933682
:1006400031F0933799F0933509F059C023C0F60182
:10065000808189835E010894A11CB11C22E030E0F6
:10066000C20ED31E21E0E22EF12C12C0F601A080B2
:10067000B18016FD03C06FEF7FEF02C0692D70E0FF
:1006800022E030E0C20ED31EC5010E94E50F7C01BE
:100690001F7713C0F601A080B18016FD03C06FEF75
:1006A0007FEF02C0692D70E022E030E0C20ED31E61
:1006B000C5010E94DA0F7C01106813FF07C01BC040
:1006C00080E290E0B3010E94F00F8A94882D90E0C0
:1006D000E816F906A8F30FC0F50117FD859117FF7D
:1006E00081915F0190E0B3010E94F00F81108A9424
:1006F0000894E108F108E114F10471F7F2C09436AE
:1007000011F0993689F517FF08C0F6012081318173
:100710004281538184E090E00AC0F601808191819A
:100720009C01442737FD4095542F82E090E0C80E8D
:10073000D91E9FE6F92EF12257FF09C0509540952A
:10074000309521953F4F4F4F5F4F90E8F92ACA01EE
:10075000B901AE014F5F5F4F2AE030E00E945510B3
:10076000E82EE889EE1A41C0953721F41F7E2AE071
:1007700030E01CC0197F9F3661F0903720F4983527
:1007800009F0B2C00FC0903739F0983709F0ACC00B
:1007900004C028E030E00AC0106114FD146020E1BC
:1007A00030E004C014FD166020E132E017FF08C0FD
:1007B000F601608171818281938144E050E008C03C
:1007C000F60180819181BC0180E090E042E050E040
:1007D000C40ED51EAE014F5F5F4F0E945510E82E2C
:1007E0005889E51A8FE7F82EF122F6FE0BC08EEF3E
:1007F000F822E91438F4F4FE07C0F2FC05C09FEEBD
:10080000F92202C01E2D01C0192DF4FE0DC0FE01FB
:10081000EE0DF11D8081803319F4E9EEFE2208C04F
:100820001F5FF2FE05C003C08F2D867809F01F5FA1
:100830000F2DF3FC14C0F0FE0FC0181510F09E2C05
:100840000BC09E2C980C911A182D06C080E290E0E7
:10085000B3010E94F00F1F5F1815C0F304C01815F4
:1008600010F4811A01C0882404FF0FC080E390E0D7
:10087000B3010E94F00F02FF1DC001FD03C088E715
:1008800090E00EC088E590E00BC0802F867891F054
:1008900001FF02C08BE201C080E2F7FC8DE290E034
:1008A000B3010E94F00F06C080E390E0B3010E9404
:1008B000F00F9A94E914C0F3EA94E1E0F0E0EC0F51
:1008C000FD1FEE0DF11D808190E0B3010E94F00F3D
:1008D000EE2091F706C080E290E0B3010E94F00F95
:1008E0008A948820C1F799CCF30166817781CB0186
:1008F0006196E2E10C94D30E806480937C00EAE779
:10090000F0E080818760808380818068808380813F
:100910008064808380E480937B0011B808958074A4
:1009200080937C00089520917C0087709070287FD0
:10093000282B20937C0080917A00806480937A0039
:1009400080917A0084FFFCCF80917A00806180934F
:100950007A002091780030917900C901089580646F
:1009600080937C000895EF92FF920F931F93482F7E
:10097000CB0120E16030720714F08FEF9FE07C0123
:100980000027F7FC0095102F80912B008F7E80931D
:100990002B00842F80630E944606D801C70124E003
:1009A000B695A795979587952A95D1F70E94460603
:1009B0008FE090E0A0E0B0E0E822F9220A231B23B8
:1009C0008E2D8295807F0E94460680912B0080614B
:1009D00080932B001F910F91FF90EF900895089541
:1009E0009C01261B370BC9010895DF92EF92FF92FD
:1009F0000F931F93CF93DF93D42E861B970BAA27B9
:100A000097FDA095BA2FBC01CD010E940D0D7B0171
:100A10008C0167EA71E0C7E5D1E0E0E0F0E0E331A6
:100A2000F105C9F48CE4D81659F4C701D8018093B4
:100A3000F3019093F401A093F501B093F60123C064
:100A4000C701D8018093A3019093A401A093A501AD
:100A5000B093A60118C0ACE4DA1669F4DB01149671
:100A60002D913D914D915C9117972D933D934D9311
:100A70005C93139708C08C819D81AE81BF81888370
:100A80009983AA83BB8331966C5F7F4F2496E431B0
:100A9000F10529F6DF91CF911F910F91FF90EF9013
:100AA000DF900895FF920F931F93CF93DF93F42E5F
:100AB0000E94F504C7EAD1E007E511E020E030E04C
:100AC000B901882777FD8095982F2CE4F21639F428
:100AD0000E940D0D288139814A815B8107C00E94E7
:100AE0000D0DF80120813181428153810E94AC0BB0
:100AF0000E94DA0C9B0124960C5F1F4FF1E0C73F68
:100B0000DF07F1F6CB01DF91CF911F910F91FF909D
:100B100008959C01442737FD4095542F6C3491F47F
:100B2000CA01B9010E940D0D2091F3013091F40129
:100B30004091F5015091F6010E94AB0B0E94DA0C36
:100B4000CB010895CA01B9010E940D0D2091A301A6
:100B50003091A4014091A5015091A6010E94AB0BD8
:100B60000E94DA0CCB0108956F927F928F929F9230
:100B7000AF92BF92CF92DF92EF92FF920F931F93AB
:100B8000CF93DF93EB018A01883471F08C3409F044
:100B900057C0CB01BA014CE40E9452057C01C80148
:100BA0006CE40E9489050AC0CB01BA0148E40E94A6
:100BB00052057C01C80168E40E9489055C01C01BE4
:100BC000D10BBE01882777FD8095982F0E940D0DCF
:100BD00020E030E046E852E40E94C50D3B014C01A4
:100BE0000027F7FC0095102FC801B7010E940D0DDA
:100BF00020E030E040E850E40E94C50D9B01AC01CC
:100C0000C401B3010E94AC0B7B018C01CC24B7FC66
:100C1000C094DC2CC601B5010E940D0D20E030E02F
:100C200040EE5FE30E94C50D9B01AC01C801B70116
:100C30000E94AC0B0E94DA0C7093F8016093F701EC
:100C40008091F7019091F801DF91CF911F910F9161
:100C5000FF90EF90DF90CF90BF90AF909F908F90DC
:100C60007F906F90089518B880912A0080618093DA
:100C70002A0080912B00806180932B0080EB84B947
:100C800080E58CBD87B18F6787B908958EBD0DB49F
:100C900007FEFDCF8EB50895603022EC720721E08B
:100CA000820720E0920741F06058754280409040F2
:100CB00019F487E790E002C089E090E09093CD00BE
:100CC0008093CC008091C90088618093C900809195
:100CD000CA0086608093CA000895982F02C0809150
:100CE000CE008091C80087FDFACF9093CE0080910E
:100CF000C80085FFFCCF08958091C80087FFFCCF16
:100D00008091CE0008959C0197FD08C083E090E09B
:100D1000B9010E94B30482E090E00AC066277727F9
:100D2000681B790B82E090E00E94B30483E090E0BE
:100D300060E070E00E94B3040895809127008D7FE9
:100D40008093270080912700877F809327008091E0
:100D500027008F7D80932700809127008F778093D5
:100D60002700089586B18A3249F482E390E0909397
:100D70002D0180932C0182E791E023C086B18A384F
:100D800049F488E790E090932D0180932C0180E94D
:100D900091E017C086B1823A49F48EE690E09093D4
:100DA0002D0180932C018AE491E00BC086B1883A32
:100DB00069F48AEF90E090932D0180932C0186E9ED
:100DC00090E090932F0180932E01089560912E0161
:100DD00070912F0180912C0190912D010E944E095C
:100DE000089584B5826084BDEEE6F0E08081826083
:100DF000808385B5846085BD87E487BD80912800A8
:100E00008E7F809328008091270081608093270047
:100E1000809126008E7F80932600789408951F92FB
:100E20000F920FB60F9211248F939F9380912800F9
:100E30008E7F8093280080915201909153010196FA
:100E40009093530180935201809128008160809398
:100E500028009F918F910F900FBE0F901F901895B3
:100E6000CF92DF92EF92FF920F931F930E94260B77
:100E700060E072EC81E090E00E944C0682E090E03D
:100E80000E947C0480E090E00E947C0483E090E07B
:100E90000E947C040E9433060E949D068CE440E080
:100EA00050E066E872E400E010E020E830E40F2E45
:100EB000F0E0CF2EF0E0DF2EF0EEEF2EFFE3FF2E7E
:100EC000F02D0E94EF0488E440E050E066E872E410
:100ED00000E010E020E830E40E94EF040E94F106F8
:100EE00080E090E060EC71E00E944E0980E391E0C8
:100EF00060E070E00E944E09F1CF2F923F924F9236
:100F00005F926F927F928F929F92AF92BF92CF9299
:100F1000DF92EF92FF920F931F93DF93CF93CDB7A2
:100F2000DEB719012A010E94AB0B3B014C016D8910
:100F30007E898F89988DA60195010E94AB0B9B013C
:100F4000AC01C401B3010E94C50D3B014C01C801B5
:100F5000B701A20191010E94AB0B9B01AC01C4013E
:100F6000B3010E94720CA60195010E94AC0BCF91B7
:100F7000DF911F910F91FF90EF90DF90CF90BF9086
:100F8000AF909F908F907F906F905F904F903F9029
:100F90002F9008958F929F92AF92BF92CF92DF923F
:100FA000EF92FF920F931F9300D000D08DB69EB6A4
:100FB0000894811C911CAA2797FDA095BA2FBC010B
:100FC000CD010E940D0D20E030E044EB52E4F4012D
:100FD000208331834283538320E030E047E853E4A9
:100FE0000F2EF0E0EF2EF0E8FF2EFEE20F2FF4E4DC
:100FF0001F2FF02D0F2EF0E0AF2EF0E0BF2EF0E00F
:10100000CF2EF0E0DF2EF02D0E947D070F900F9085
:101010000F900F900E94DA0CCB011F910F91FF905F
:10102000EF90DF90CF90BF90AF909F908F900895FA
:101030008F929F92AF92BF92CF92DF92EF92FF92E8
:101040000F931F9300D000D08DB69EB60894811CDC
:10105000911CAA2797FDA095BA2FBC01CD010E9433
:101060000D0D20E030E040E050E0F40120833183BA
:101070004283538320E030E047E853E40F2EF0E052
:10108000EF2EF0E4FF2EFEE10F2FF4E41F2FF02DE2
:101090000F2EF0E0AF2EF0E0BF2EF4EBCF2EF2ECEF
:1010A000DF2EF02D0E947D070F900F900F900F9074
:1010B0000E94DA0CCB011F910F91FF90EF90DF900F
:1010C000CF90BF90AF909F908F90089520913E0158
:1010D00030913F0140914001509141010E94720CBA
:1010E00020E030E044E353E40E94C50D0E94DA0C96
:1010F000CB010895681B790B77FF06C080E06B5F1A
:101100007F4F3CF081E0089580E0663071050CF47B
:1011100081E0089588349105D1F08C349105A9F5CA
:101120006130710549F480E090E060E078E00E9471
:10113000B30481E090E016C0672B39F581E090E0C0
:1011400060E078E00E94B30480E090E00BC0613082
:10115000710569F482E090E060E078E00E94B304F9
:1011600083E090E060E070E00E94B3040895672B94
:1011700061F483E090E060E078E00E94B30482E0F4
:1011800090E060E070E00E94B304089580E090E099
:1011900060E070E00E94B30481E090E060E070E005
:1011A0000E94B30482E090E060E070E00E94B3042B
:1011B00083E090E060E070E00E94B3040895AF9295
:1011C000BF92CF92DF92EF92FF920F931F93CF9334
:1011D000DF936C015B0182E090E00E94AF0482E04B
:1011E00090E00E9493040E94CA077C0183E090E093
:1011F0000E94AF0483E090E00E9493040E941808CC
:101200008C018CE490E0B601A7010E94B405EC01CA
:1012100088E490E0B501A8010E94B4058C01D7FDD7
:1012200008C080E090E0BE010E94B30481E090E03D
:101230000AC0662777276C1B7D0B81E090E00E9437
:10124000B30480E090E060E070E00E94B30417FD1A
:1012500008C083E090E0B8010E94B30482E090E00F
:1012600007C082E090E0B8010E94B30483E090E000
:1012700060E070E00E94B304DF91CF911F910F9165
:10128000FF90EF90DF90CF90BF90AF90089580E0F7
:1012900090E060E070E00E94DF0808952F923F9296
:1012A0004F925F926F927F928F929F92AF92BF9276
:1012B000CF92DF92EF92FF920F931F93DF93CF9322
:1012C000CDB7DEB7A0970FB6F894DEBF0FBECDBF87
:1012D0009C01442737FD4095542F298F3A8F4B8F1F
:1012E0005C8FCB01AA2797FDA095BA2F8D8F9E8F7B
:1012F000AF8FB8A382E090E00E94AF0482E090E05C
:101300000E9493040E94CA079C838B8383E090E031
:101310000E94AF0483E090E00E9493040E941808AA
:101320009A838983698D7A8D8B8D9C8D0E940D0D9A
:10133000698B7A8B8B8B9C8B6D8D7E8D8F8D98A11D
:101340000E940D0D20913201309133014091340102
:10135000509135010E94AB0B6D8B7E8B8F8B988FDC
:10136000609036017090370180903801909039017B
:1013700020903A0130903B0140903C0150903D015B
:1013800069897A898B899C899B01AC010E94C50D72
:101390007B018C016D897E898F89988D9B01AC01C1
:1013A0000E94C50D9B01AC01C801B7010E94AC0BA6
:1013B0007B018C01C401B301A40193010E94C50DFE
:1013C0009B01AC01C801B7010E94AB0B7B018C01F2
:1013D000C201B101A20191010E94C50D9B01AC01A6
:1013E000C801B7010E94AB0B7B018C01C401B301A2
:1013F000A40193010E94AC0BA20191010E94C50DB2
:101400009B01AC01C801B7010E94720C5B016C0129
:10141000A60195010E94C50D9B01AC0160E070E042
:1014200080E89FE30E94AB0B0E942C0E7B018C0195
:1014300017FB109517F91095C801B701A601950182
:101440000E941F0C6D877E878F87988B20913E01AD
:1014500030913F01409140015091410129873A87E5
:101460004B875C876D897E898F89988D29893A8918
:101470004B895C890E941F0C6D837E838F839887C4
:10148000C401B301A80197010E94C50D7B018C0125
:10149000C201B101A60195010E94C50D9B01AC01DD
:1014A000C401B3010E94AC0B9B01AC01C801B701A0
:1014B0000E941F0C9B01AC016D817E818F819885FC
:1014C0000E94AB0B20E030E044E353E40E94C50DE2
:1014D00029853A854B855C850E94720C0E94DA0C46
:1014E0009B01AC016B018CE490E0B9014B815C8104
:1014F0000E94B4058C016D857E858F85988920E0DA
:1015000030E044E353E40E94C50D29853A854B85BC
:101510005C850E94720C0E94DA0C9B01AC017B017D
:1015200088E490E0B90149815A810E94B4055C01C8
:1015300017FD08C080E090E0B8010E94B30481E08C
:1015400090E00AC066277727601B710B81E090E06E
:101550000E94B30480E090E060E070E00E94B30479
:10156000B7FC08C083E090E0B5010E94B30482E0BC
:1015700090E007C082E090E0B5010E94B30483E0F0
:1015800090E060E070E00E94B304C6016B817C8152
:101590000E947A08882339F0C70169817A810E9404
:1015A0007A08882309F500D000D000D0EDB7FEB747
:1015B000319620E031E0ADB7BEB712963C932E9342
:1015C00011974B815C815383428389819A819583F2
:1015D00084830E941C10ADB7BEB716960FB6F89460
:1015E000BEBF0FBEADBF86CEA0960FB6F894DEBFCD
:1015F0000FBECDBFCF91DF911F910F91FF90EF9064
:10160000DF90CF90BF90AF909F908F907F906F9022
:101610005F904F903F902F9008952BE130E0AC0108
:10162000429FC001439F900D529F900D112466E68A
:1016300070E00E94820ECB0108959C01220F331F9F
:10164000220F331F280F391FC901089582E491E04A
:10165000909328028093270260E072EC81E090E092
:101660000E94380B08950E946D0680E090E0089576
:101670009B01AC0184E0220F331F441F551F8A9544
:10168000D1F760E070E489E191E00E94950E21506D
:1016900030403093C5002093C40088E18093C1009E
:1016A00086E08093C2000895982F8091C00085FF46
:1016B000FCCF9093C6000895FC0107C08091C00044
:1016C00085FFFCCF9093C600319690819923B1F7A6
:1016D00008950F931F93DF93CF93CDB7DEB7649731
:1016E0000FB6F894DEBF0FBECDBF2DB73EB7285062
:1016F00030400FB6F8943EBF0FBE2DBFEDB7FEB71A
:1017000031968E010F5F1F4FADB7BEB712961C9377
:101710000E93119729E031E03383228395838483EC
:10172000778366830E9431102DB73EB7285F3F4F05
:101730000FB6F8943EBF0FBE2DBFC8010E945C0BD0
:1017400064960FB6F894DEBF0FBECDBFCF91DF9188
:101750001F910F9108955058BB27AA270ED0D4C1CE
:10176000C5D130F0CAD120F031F49F3F11F41EF4FE
:1017700095C10EF4E095E7FB8BC1E92FD6D180F33C
:10178000BA17620773078407950718F071F49EF57E
:10179000EEC10EF4E0950B2EBA2FA02D0B01B9016E
:1017A00090010C01CA01A0011124FF27591B99F0D7
:1017B000593F50F4503E68F11A16F040A22F232FE3
:1017C000342F4427585FF3CF469537952795A79533
:1017D000F0405395C9F77EF41F16BA0B620B730BDA
:1017E000840BBAF09150A1F0FF0FBB1F661F771F4B
:1017F000881FC2F70EC0BA0F621F731F841F48F400
:10180000879577956795B795F7959E3F08F0B3CF85
:101810009395880F08F09927EE0F9795879508956F
:1018200065D158F080E891E009F49EEF66D128F088
:1018300040E851E059F45EEF09C030C198C1E92F8A
:10184000E07873D168F3092E052AC1F3261737070C
:101850004807590738F00E2E07F8E02569F0E02513
:10186000E0640AC0EF6307F8009407FADB01B901EE
:101870009D01DC01CA01AD01EF9343D045D10AD0EF
:101880005F91552331F02BED3FE049E450FD49ECE9
:1018900063CF0895DF93DD27B92FBF7740E85FE37B
:1018A0001616170648075B0710F4D92F67D19F93C8
:1018B0008F937F936F930ED2ECE7F0E0F2D024D1B8
:1018C0002F913F914F915F916CD1DD2349F090585A
:1018D000A2EA2AED3FE049EC5FE3D0785D274DDFD7
:1018E000DF9112C10CD010C108D140F0FFD030F010
:1018F00021F45F3F19F0CCC051113AC1CFC015D1CE
:1019000098F39923C9F35523B1F3951B550BBB27C6
:10191000AA2762177307840738F09F5F5F4F220F73
:10192000331F441FAA1FA9F333D00E2E3AF0E0E86C
:1019300030D091505040E695001CCAF729D0FE2FB8
:1019400027D0660F771F881FBB1F2617370748074A
:10195000AB07B0E809F0BB0B802DBF01FF27935800
:101960005F4F2AF09E3F510568F092C001C15F3F72
:10197000ECF3983EDCF3869577956795B795F795E8
:101980009F5FC9F7880F911D9695879597F90895E0
:10199000E1E0660F771F881FBB1F6217730784077C
:1019A000BA0720F0621B730B840BBA0BEE1F88F78B
:1019B000E095089504D06894B111DAC00895BDD0BF
:1019C00088F09F5790F0B92F9927B751A0F0D1F028
:1019D000660F771F881F991F1AF0BA95C9F712C0B2
:1019E000B13081F0C4D0B1E00895C1C0672F782F25
:1019F0008827B85F39F0B93FCCF38695779567951E
:101A0000B395D9F73EF490958095709561957F4F89
:101A10008F4F9F4F0895E89409C097FB3EF490952F
:101A20008095709561957F4F8F4F9F4F9923A9F0B7
:101A3000F92F96E9BB279395F69587957795679546
:101A4000B795F111F8CFFAF4BB0F11F460FF1BC08A
:101A50006F5F7F4F8F4F9F4F16C0882311F096E91D
:101A600011C0772321F09EE8872F762F05C06623CB
:101A700071F096E8862F70E060E02AF09A95660F84
:101A8000771F881FDAF7880F9695879597F908953D
:101A900097F99F6780E870E060E008959FEF80EC21
:101AA0000895DF93CF931F930F93FF92EF92DF92EE
:101AB0007B018C01689405C0DA2EEF0172D0FE0123
:101AC000E894A5912591359145915591AEF3EF019B
:101AD00054DEFE019701A801DA9479F7DF90EF90C8
:101AE000FF900F911F91CF91DF91089500240A94E8
:101AF0001616170618060906089500240A941216E9
:101B00001306140605060895092E0394000C11F41B
:101B1000882352F0BB0F40F4BF2B11F460FF04C0C8
:101B20006F5F7F4F8F4F9F4F089557FD9058440F21
:101B3000551F59F05F3F71F04795880F97FB991F2C
:101B400061F09F3F79F087950895121613061406E9
:101B5000551FF2CF4695F1DF08C016161706180676
:101B6000991FF1CF86957105610508940895E89451
:101B7000BB2766277727CB0197F908959B01AC0116
:101B800060E070E080E89FE3ADCE0BD0BDCFAEDF6C
:101B900028F0B3DF18F0952309F07ACF7FCF112416
:101BA000E7CFC3DFA0F3959FD1F3950F50E0551F0A
:101BB000629FF001729FBB27F00DB11D639FAA27A2
:101BC000F00DB11DAA1F649F6627B00DA11D661FF1
:101BD000829F2227B00DA11D621F739FB00DA11D12
:101BE000621F839FA00D611D221F749F3327A00DCC
:101BF000611D231F849F600D211D822F762F6A2F68
:101C000011249F5750408AF0E1F088234AF0EE0FEC
:101C1000FF1FBB1F661F771F881F91505040A9F7F9
:101C20009E3F510570F034CFA3CF5F3FECF3983E59
:101C3000DCF3869577956795B795F795E7959F5F60
:101C4000C1F7FE2B880F911D9695879597F90895FA
:101C500011F40EF423CF41C070DFD0F39923D9F3F0
:101C6000CEF39F57550B87FF46D00024A0E640EAED
:101C7000900180585695979528F4805C660F771FE1
:101C8000881F20F026173707480730F4621B730BB4
:101C9000840B202931294A2BA695179407942025D7
:101CA00031254A2758F7660F771F881F20F026171F
:101CB0003707480730F4620B730B840B200D311D7E
:101CC000411DA09581F7B901842F9158880F9695F1
:101CD000879508959B01AC0158CF9F3F31F09150FB
:101CE00020F4879577956795B795880F911D969500
:101CF000879597F9089591505040660F771F881F78
:101D0000D2F7089597FB092E07260AD077FD04D055
:101D100065D006D000201AF4709561957F4F089524
:101D2000F6F7909581959F4F0895A1E21A2EAA1B70
:101D3000BB1BFD010DC0AA1FBB1FEE1FFF1FA2177B
:101D4000B307E407F50720F0A21BB30BE40BF50B78
:101D5000661F771F881F991F1A9469F76095709501
:101D6000809590959B01AC01BD01CF0108952F9204
:101D70003F924F925F926F927F928F929F92AF921B
:101D8000BF92CF92DF92EF92FF920F931F93CF9368
:101D9000DF93CDB7DEB7CA1BDB0B0FB6F894DEBFFF
:101DA0000FBECDBF09942A88398848885F846E8425
:101DB0007D848C849B84AA84B984C884DF80EE806F
:101DC000FD800C811B81AA81B981CE0FD11D0FB678
:101DD000F894DEBF0FBECDBFED010895AA1BBB1B5B
:101DE00051E107C0AA1FBB1FA617B70710F0A61B1B
:101DF000B70B881F991F5A95A9F780959095BC013C
:101E0000CD010895283008F027E03327DA01990F33
:101E1000311D87FD916000966105710539F43260CE
:101E20002E5F3D9330E32A95E1F708959F3F30F010
:101E300080387105610509F03C5F3C5F3D9391304E
:101E400008F08068911DDF93CF931F930F93FF924B
:101E5000EF92192F987F9695E92F96959695E90F11
:101E6000FF27E55FFE4F99273327EE24FF24A701C4
:101E7000E70105900894079428F4360FE71EF81E32
:101E8000491F511D660F771F881F991F0694A1F7E0
:101E90000590079428F4E70EF81E491F561FC11D30
:101EA000770F881F991F661F0694A1F70590079466
:101EB00028F4F80E491F561FC71FD11D880F991F00
:101EC000661F771F0694A1F70590079420F4490F29
:101ED000561FC71FD81F990F661F771F881F0694AC
:101EE000A9F784911095177041F0D695C79557952D
:101EF0004795F794E7941A95C1F7E1EBF0E0689401
:101F00001590159135916591959105907FE27395A6
:101F1000E118F10A430B560BC90BD009C0F7E10CCD
:101F2000F11E431F561FC91FD01D7EF4703311F4DC
:101F30008A95E6CFE894015030F0080F0AF40027A4
:101F4000021708F4202F2395022F7A3328F079E323
:101F50007D932A95E9F710C07D932A9589F606941A
:101F600097956795379517951794E118F10A430BE4
:101F7000560BC90BD00998F023957E9173957A334F
:101F800008F070E37C932013B8F77E9170617D9325
:101F900030F0839571E37D9370E32A95E1F7112486
:101FA000EF90FF900F911F91CF91DF91992787FDBF
:101FB00090950895FC010590615070400110D8F78C
:101FC000809590958E0F9F1F0895FC016150704081
:101FD00001900110D8F7809590958E0F9F1F08955E
:101FE0000F931F93CF93DF938C01EB018B8181FFC4
:101FF0001BC082FF0DC02E813F818C819D812817DF
:10200000390764F4E881F9810193F983E88306C014
:10201000E885F985802F0995892B31F48E819F8180
:1020200001969F838E8302C00FEF1FEFC801DF91DF
:10203000CF911F910F910895A0E0B0E0E2E2F0E1AE
:102040000C94C70EFE013596619171918091270223
:1020500090912802AF010E94F5002096E2E00C94D6
:10206000E30EAEE0B0E0E7E3F0E10C94C50E0D89BD
:102070001E8986E08C831A8309838FEF9FE79E83F6
:102080008D839E01275E3F4FCE0101966F89788D2B
:10209000A9010E94F5002F813885020F131FF80156
:1020A00010822E96E4E00C94E10EFA01AA27283063
:1020B00051F1203181F1E8946F936E7F6E5F7F4F15
:1020C0008F4F9F4FAF4FB1E03ED0B4E03CD0670F91
:1020D000781F891F9A1FA11D680F791F8A1F911DE4
:1020E000A11D6A0F711D811D911DA11D20D009F434
:1020F00068943F912AE0269F11243019305D319376
:10210000DEF6CF010895462F4770405D4193B3E05E
:102110000FD0C9F7F6CF462F4F70405D4A3318F005
:10212000495D31FD4052419302D0A9F7EACFB4E0B6
:10213000A6959795879577956795BA95C9F700976E
:102140006105710508959B01AC010A2E069457950F
:10215000479537952795BA95C9F7620F731F841F66
:0A216000951FA01D0895F894FFCF0D
:10216A0025642C0925640D0A00536574736572761B
:10217A006F2825642C25303364290A0D002D004C64
:10218A0000008642000080400000E03FC800C8000E
:10219A00001035DE0E43A86618439C841843DB0FF3
:1021AA0049400000000200000000330B000000005C
:0221BA0014000F
:00000001FF
