:100000000C94D6000C94F3000C94F3000C94F300C1
:100010000C94F3000C94F3000C94F3000C94F30094
:100020000C94F3000C94F3000C94F3000C94F30084
:100030000C94F3000C94F3000C94F3000C94F30074
:100040000C94BF080C94F3000C94F3000C94F30090
:100050000C94F3000C94F3000C94F3000C94F30054
:100060000C94F3000C94F3000C94F3000C94F30044
:100070000C94F3000C94F3000C94F300084AD73B63
:100080003BCE016E84BCBFFDC12F3D6C74319ABD67
:1000900056833DDA3D00C77F11BED9E4BB4C3E918B
:1000A0006BAAAABE000000803F6E616E00696E669A
:1000B0000000407A10F35A00A0724E18090010A5F3
:1000C000D4E80000E87648170000E40B5402000072
:1000D000CA9A3B000000E1F50500008096980000F8
:1000E0000040420F000000A0860100000010270021
:1000F000000000E803000000006400000000000AA7
:1001000000000000000100000000002C76D888DC10
:10011000674F0823DFC1DFAE59E1B1B796E5E3E4ED
:1001200053C63AE651997696E8E6C28426EB898C66
:100130009B62ED407C6FFCEFBC9C9F40F2BAA56FC8
:10014000A5F490055A2AF75C936B6CF9676DC11B97
:10015000FCE0E40D47FEF520E6B500D0ED902E035F
:1001600000943577050080841E080000204E0A00A8
:100170000000C80C333333330F986E12831141EFF4
:100180008D2114893BE65516CFFEE6DB18D1844B52
:10019000381BF77C1D901DA4BBE424203284725EC2
:1001A000228100C9F124ECA1E53D270011241FBEE6
:1001B000CFEFD0E1DEBFCDBF11E0A0E0B1E0E6E2DD
:1001C000F7E202C005900D92A836B107D9F712E008
:1001D000A8E6B1E001C01D92A937B107E1F70E947E
:1001E00075090C9491130C940000A1E1B0E0EBEFC1
:1001F000F0E00C9495113C017F876E876A01FC0149
:1002000017821682838181FD03C06FEF7FEF6FC37A
:100210009E012F5F3F4F398B288BF3012381EE85A1
:10022000FF8523FD859123FF8191FF87EE8788233A
:1002300009F45AC3853251F4EE85FF8523FD85917B
:1002400023FF8191FF87EE87853229F490E0B30187
:100250000E94CE12E2CF982F10E088249924103209
:10026000B0F49B3269F09C3228F4903251F0933212
:1002700071F40BC09D3239F0903349F4116028C0FD
:100280001260146025C0186023C0106121C017FDE2
:100290002AC0892F80538A3078F416FF06C0FAE00E
:1002A0009F9E902C1124980E13C03AE0839E802CC0
:1002B0001124880E10620CC09E3221F416FD14C366
:1002C000106406C09C3611F4106802C0983659F4C8
:1002D000EE85FF8523FD959123FF9191FF87EE87A2
:1002E000992309F0BCCF892F8554833020F4812FC6
:1002F0008061905E07C0892F8556833008F09FC1CA
:10030000812F8F7E86FD02C076E0972E6FE3F62E5A
:10031000F822953619F4F0E4FF2A07C0963619F44E
:1003200020E8F22A02C091109A94F7FE0AC03BE33B
:10033000391518F45CE3B52E02C0B92CB39427E04C
:1003400009C047E0491520F4BB2447E0942EF7CFBD
:10035000292DBB24C60104969D878C87F6016081F8
:10036000718182819381AE014F5F5F4F0B2D0E949F
:10037000E0116C010981202E332400FF04C003FD2D
:1003800002C01DE209C0F1FE02C01BE205C0F2FC82
:1003900002C010E001C010E2C1018C709070892B86
:1003A000B9F1112311F483E001C084E0881510F045
:1003B00088240AC0881AF3FC07C080E290E0B301E9
:1003C0000E94CE128A94C9F7112329F0812F90E060
:1003D000B3010E94CE1223FE03C009EA10E00EC052
:1003E0000DEA10E00BC0E114F10409F0805290E036
:1003F000B3010E94CE120F5F1F4F05C0EF2CFF24E8
:10040000F0E1EF22FF24F8018491882361F714C101
:10041000F7FE12C0BC0C24FE04C08A81813309F4AB
:10042000BA941B141CF0BB24B3942DC0F8E0FB1548
:1004300050F538E0B32E27C0F6FC25C0892D90E09A
:100440008C159D054CF02CEFC2162FEFD20624F030
:1004500030E8F32A01C09A94992049F0E2E0F0E0F4
:10046000EC0FFD1FE90DF11D80818033A1F3F7FE34
:100470000AC0B92CB394892D90E0C816D90614F09F
:10048000992401C09C18F7FC03C025E030E009C0A6
:100490001C141D041CF021E030E003C096012F5F06
:1004A0003F4F112311F02F5F3F4F992029F0892DE5
:1004B00090E00196280F391F882D90E02817390702
:1004C00014F0882401C0821A4F2C5524C20189706F
:1004D0009070892B39F008C080E290E0B3010E944F
:1004E000CE128A948820C1F7112329F0812F90E041
:1004F000B3010E94CE1243FE07C008C080E390E023
:10050000B3010E94CE128A948820C1F7F7FE46C03C
:100510008601D7FE02C000E010E076010894E11CDD
:10052000F11CE01AF10A41E050E04C0F5D1FE40EAF
:10053000F51E26014B185108892D90E0AA24BB24F2
:10054000A81AB90A5FEF0F3F150729F48EE290E071
:10055000B3010E94CE12C016D10634F040165106E7
:100560001CF4F701808101C080E301501040089421
:10057000E11CF11C0A151B052CF090E0B3010E9450
:10058000CE12E0CF0C151D0539F49A81963318F47C
:10059000953311F424FE81E390E04BC08A818133CE
:1005A00009F00F7E90E0B3010E94CE129920A1F0D5
:1005B0008EE290E0B3010E94CE1212E0E1E0F0E0A2
:1005C000EC0FFD1FE10FF11D1F5F808190E0B30173
:1005D0000E94CE129A9491F744FC03C085E690E005
:1005E00002C085E490E0B3010E94CE12D7FC05C0A2
:1005F000C114D10441F404FF06C0D094C194D108C1
:10060000D3948DE201C08BE290E0B3010E94CE1240
:1006100080E305C08F5F26EF3FEFC20ED31E3AE0A6
:10062000C316D104BCF790E0B3010E94CE12C601FC
:10063000C096B3010E94CE12CC84DD8452C19336A1
:1006400031F0933799F0933509F059C023C0F60182
:10065000808189835E010894A11CB11C22E030E0F6
:10066000C20ED31E21E0E22EF12C12C0F601A080B2
:10067000B18016FD03C06FEF7FEF02C0692D70E0FF
:1006800022E030E0C20ED31EC5010E94C3127C01DD
:100690001F7713C0F601A080B18016FD03C06FEF75
:1006A0007FEF02C0692D70E022E030E0C20ED31E61
:1006B000C5010E94B8127C01106813FF07C01BC05F
:1006C00080E290E0B3010E94CE128A94882D90E0DF
:1006D000E816F906A8F30FC0F50117FD859117FF7D
:1006E00081915F0190E0B3010E94CE1281108A9443
:1006F0000894E108F108E114F10471F7F2C09436AE
:1007000011F0993689F517FF08C0F6012081318173
:100710004281538184E090E00AC0F601808191819A
:100720009C01442737FD4095542F82E090E0C80E8D
:10073000D91E9FE6F92EF12257FF09C0509540952A
:10074000309521953F4F4F4F5F4F90E8F92ACA01EE
:10075000B901AE014F5F5F4F2AE030E00E943313D2
:10076000E82EE889EE1A41C0953721F41F7E2AE071
:1007700030E01CC0197F9F3661F0903720F4983527
:1007800009F0B2C00FC0903739F0983709F0ACC00B
:1007900004C028E030E00AC0106114FD146020E1BC
:1007A00030E004C014FD166020E132E017FF08C0FD
:1007B000F601608171818281938144E050E008C03C
:1007C000F60180819181BC0180E090E042E050E040
:1007D000C40ED51EAE014F5F5F4F0E943313E82E4B
:1007E0005889E51A8FE7F82EF122F6FE0BC08EEF3E
:1007F000F822E91438F4F4FE07C0F2FC05C09FEEBD
:10080000F92202C01E2D01C0192DF4FE0DC0FE01FB
:10081000EE0DF11D8081803319F4E9EEFE2208C04F
:100820001F5FF2FE05C003C08F2D867809F01F5FA1
:100830000F2DF3FC14C0F0FE0FC0181510F09E2C05
:100840000BC09E2C980C911A182D06C080E290E0E7
:10085000B3010E94CE121F5F1815C0F304C0181513
:1008600010F4811A01C0882404FF0FC080E390E0D7
:10087000B3010E94CE1202FF1DC001FD03C088E734
:1008800090E00EC088E590E00BC0802F867891F054
:1008900001FF02C08BE201C080E2F7FC8DE290E034
:1008A000B3010E94CE1206C080E390E0B3010E9423
:1008B000CE129A94E914C0F3EA94E1E0F0E0EC0F70
:1008C000FD1FEE0DF11D808190E0B3010E94CE125C
:1008D000EE2091F706C080E290E0B3010E94CE12B4
:1008E0008A948820C1F799CCF30166817781CB0186
:1008F0006196E2E10C94B111806480937C00EAE798
:10090000F0E080818760808380818068808380813F
:100910008064808380E480937B0011B808958074A4
:1009200080937C00089520917C0087709070287FD0
:10093000282B20937C0080917A00806480937A0039
:1009400080917A0084FFFCCF80917A00806180934F
:100950007A002091780030917900C901089580646F
:1009600080937C000895EF92FF920F931F93482F7E
:10097000CB0120E16030720714F08FEF9FE07C0123
:100980000027F7FC0095102F80912B008F7E80931D
:100990002B00842F80630E94FF07D801C70124E049
:1009A000B695A795979587952A95D1F70E94FF0749
:1009B0008FE090E0A0E0B0E0E822F9220A231B23B8
:1009C0008E2D8295807F0E94FF0780912B00806191
:1009D00080932B001F910F91FF90EF900895CF927D
:1009E000DF92EF92FF920F931F93883419F08C34AB
:1009F00091F519C04093D5015093D6016093D7016A
:100A00007093D8010093D9011093DA012093DB0190
:100A10003093DC01C092DD01D092DE01E092DF0173
:100A2000F092E00118C04093E1015093E20160931D
:100A3000E3017093E4010093E5011093E601209334
:100A4000E7013093E801C092E901D092EA01E09217
:100A5000EB01F092EC011F910F91FF90EF90DF906E
:100A6000CF9008959C01261B370BC9010895DF9292
:100A7000EF92FF920F931F93CF93DF93D42E861B99
:100A8000970BAA2797FDA095BA2FBC01CD010E9414
:100A9000EB0F7B018C016DEE71E0C5E8D1E0E0E089
:100AA000F0E0E331F105C9F48CE4D81659F4C7013C
:100AB000D8018093390290933A02A0933B02B093FD
:100AC0003C0223C0C701D8018093D1019093D20189
:100AD000A093D301B093D40118C0ACE4DA1669F442
:100AE000DB0114962D913D914D915C9117972D93BB
:100AF0003D934D935C93139708C08C819D81AE818B
:100B0000BF8188839983AA83BB8331966C5F7F4FB3
:100B10002496E431F10529F6DF91CF911F910F91D1
:100B2000FF90EF90DF900895FF920F931F93CF9364
:100B3000DF93F42E0E943705CDEED1E005E811E0F9
:100B400020E030E0B901882777FD8095982F2CE4CC
:100B5000F21639F40E94EB0F288139814A815B81BA
:100B600007C00E94EB0FF80120813181428153813F
:100B70000E948A0E0E94B80F9B0124960C5F1F4FA3
:100B8000F2E0CD33DF07F1F6CB01DF91CF911F917A
:100B90000F91FF9008959C01442737FD4095542FF5
:100BA0006C3491F4CA01B9010E94EB0F2091390213
:100BB00030913A0240913B0250913C020E94890ED2
:100BC0000E94B80FCB010895CA01B9010E94EB0F32
:100BD0002091D1013091D2014091D3015091D401A3
:100BE0000E94890E0E94B80FCB0108956F927F92E8
:100BF0008F929F92AF92BF92CF92DF92EF92FF922D
:100C00000F931F93CF93DF93EB018A01883471F028
:100C10008C3409F057C0CB01BA014CE40E94940512
:100C20007C01C8016CE40E94CB050AC0CB01BA016B
:100C300048E40E9494057C01C80168E40E94CB0549
:100C40005C01C01BD10BBE01882777FD8095982FD2
:100C50000E94EB0F20E030E046E852E40E94A3102F
:100C60003B014C010027F7FC0095102FC801B7018C
:100C70000E94EB0F20E030E040E850E40E94A31017
:100C80009B01AC01C401B3010E948A0E7B018C015F
:100C9000CC24B7FCC094DC2CC601B5010E94EB0F3C
:100CA00020E030E040EE5FE30E94A3109B01AC0126
:100CB000C801B7010E948A0E0E94B80F70933E02CD
:100CC00060933D0280913D0290913E02DF91CF9171
:100CD0001F910F91FF90EF90DF90CF90BF90AF905A
:100CE0009F908F907F906F90089580E090E008959E
:100CF000009771F4809128008F7D8093280080E216
:100D00000E94FF0780912800806280932800089548
:100D1000019769F4809128008F7E8093280080E2FB
:100D20000E94FF0780912800806180932800089529
:100D3000EF92FF920F931F93CF93DF937C01009765
:100D4000B1F4809128008F7D8093280080E60E9476
:100D5000FF0780E00E94FF07082F10E080E00E945C
:100D6000FF07C82FD0E08091280080621EC081E07C
:100D7000E816F10429F000E010E0C0E0D0E017C070
:100D8000809128008F7E8093280080E60E94FF07D4
:100D900080E00E94FF07082F10E080E00E94FF071C
:100DA000C82FD0E080912800806180932800C7017F
:100DB0000E947806302F2227442737FD4095542F74
:100DC000CE01AA2797FDA095BA2F282B392B4A2BA5
:100DD0005B2BB901CA01DF91CF911F910F91FF9059
:100DE000EF9008959C0180912700806280932700F6
:100DF0008091270080618093270080912800806285
:100E0000809328008091280080618093280021151C
:100E1000310509F5809128008F7D8093280088E8AE
:100E20000E94FF0783E00E94FF07809128008062F4
:100E300080932800809128008F7D8093280080E98E
:100E40000E94FF0782E00E94FF07809128008062D5
:100E50008093280008952130310501F58091280004
:100E60008F7E8093280088E80E94FF0783E00E941D
:100E7000FF078091280080618093280080912800DE
:100E80008F7E8093280080E90E94FF0782E00E9405
:100E9000FF078091280080618093280008950F93B8
:100EA0001F93082F80912A00806880932A008091E8
:100EB0002B00806880932B0080912B008F7780938C
:100EC0002B0086E00E94FF0783E00E94FF07182F97
:100ED00080E00E94FF0790912B00906890932B0078
:100EE00090E02091680130916901822B932B312F82
:100EF00020E0822B932B909369018093680180916D
:100F00002B008F7780932B0086E00E94FF07802FB5
:100F10000E94FF07082F10E080E00E94FF079091D9
:100F20002B00906890932B000F701070102F0027EB
:100F300090E0082B192B209168013091690102176C
:100F4000130774F0021B130BB801882777FD8095F7
:100F5000982F0E94EB0F2EEA37E441E65EE30DC0C6
:100F6000201B310BB901882777FD8095982F0E94AF
:100F7000EB0F2EEA37E441E65EEB0E94A3100E94DD
:100F8000B80FCB011F910F91089580EB84B980E5D4
:100F90008CBD87B18F6787B980912A00806180936B
:100FA0002A0080912B008F7E80932B0080912B0054
:100FB000806180932B0080912A00806880932A00B2
:100FC00080912B008F7780932B0080912B0080687D
:100FD00080932B008091270080628093270080916E
:100FE0002700806180932700809128008062809391
:100FF00028008091280080618093280008958EBD8C
:101000000DB407FEFDCF8EB50895603022EC720757
:1010100021E0820720E0920741F06058754280404D
:10102000904019F487E790E002C089E090E0909347
:10103000CD008093CC008091C90088618093C90065
:101040008091CA0086608093CA000895982F02C0DC
:101050008091CE008091C80087FDFACF9093CE009A
:101060008091C80085FFFCCF08958091C80087FF5C
:10107000FCCF8091CE0008959C0197FD08C083E0CD
:1010800090E0B9010E94B30482E090E00AC06627B4
:101090007727681B790B82E090E00E94B30483E01D
:1010A00090E060E070E00E94B30408958091270012
:1010B0008D7F80932700809127008B7F809327006E
:1010C00080912700877F80932700809127008F776A
:1010D00080932700089586B18E3229F480E090E055
:1010E00060E070E015C086B1863A59F480E090E087
:1010F00060E070E00E94B30481E090E063EC73E094
:101100000DC086B18A3A69F480E090E063EC73E048
:101110000E94B30481E090E060E070E00E94B304BC
:10112000089586B18C3A61F480E090E06DE877E054
:101130000E94B30481E090E060E070E00E94B3049C
:10114000089584B5826084BDEEE6F0E0808182601F
:10115000808385B5856085BD83EB87BD8091280040
:101160008E7F8093280080912700816080932700E4
:10117000809126008E7F80932600789408951F9298
:101180000F920FB60F9211242F933F934F935F93BB
:101190006F937F938F939F93AF93BF93EF93FF933F
:1011A00080E090E00E944F07909376018093750154
:1011B00081E090E00E944F0790937801809377013F
:1011C00082E090E00E944F0790937A01809379012A
:1011D00082E090E00E9493049093740180937301E5
:1011E00080E090E00E94F20680E090E00E94980685
:1011F00070936E0160936D01882777FD8095982F1D
:1012000020916F01309170014091710150917201F4
:10121000620F731F841F951F60936F01709370019D
:1012200080937101909372012DB73EB72E503040DC
:101230000FB6F8943EBF0FBE2DBFEDB7FEB7319687
:1012400020E031E0ADB7BEB712963C932E931197D4
:101250006283738384839583809173019091740179
:10126000978386838091750190917601918780871D
:10127000809177019091780193878287809179019D
:1012800090917A01958784870E94FA122DB73EB714
:10129000225F3F4F0FB6F8943EBF0FBE2DBF0E9496
:1012A0006B08809128008E7F8093280080916A01CE
:1012B00090916B01019690936B0180936A018091EC
:1012C0002800816080932800FF91EF91BF91AF913A
:1012D0009F918F917F916F915F914F913F912F914E
:1012E0000F900FBE0F901F901895CF92DF92EF9244
:1012F000FF920F931F930E94040E60E072EC81E056
:1013000090E00E94050882E090E00E947C040E9428
:10131000C50780E090E00E94F20680E090E00E9425
:1013200078060E9456088CE440E050E066E872E4DB
:1013300000E010E020E830E40F2EF0E0CF2EF0E0E7
:10134000DF2EF0EEEF2EFFE3FF2EF02D0E94EF04D4
:1013500088E440E050E066E872E400E010E020E855
:1013600030E40E94EF040E94A108FFCF2F923F9229
:101370004F925F926F927F928F929F92AF92BF92A5
:10138000CF92DF92EF92FF920F931F93DF93CF9351
:10139000CDB7DEB719012A010E94890E3B014C012D
:1013A0006D897E898F89988DA60195010E94890E8D
:1013B0009B01AC01C401B3010E94A3103B014C018D
:1013C000C801B701A20191010E94890E9B01AC01E5
:1013D000C401B3010E94500FA60195010E948A0E1C
:1013E000CF91DF911F910F91FF90EF90DF90CF9001
:1013F000BF90AF909F908F907F906F905F904F9035
:101400003F902F9008958F929F92AF92BF92CF926C
:10141000DF92EF92FF920F931F9300D000D08DB612
:101420009EB60894811C911CAA2797FDA095BA2FFF
:10143000BC01CD010E94EB0F20E030E044EB52E410
:10144000F401208331834283538320E030E047E876
:1014500053E40F2EF0E0EF2EF0E8FF2EFEE20F2F08
:10146000F4E41F2FF02D0F2EF0E0AF2EF0E0BF2E92
:10147000F0E0CF2EF0E0DF2EF02D0E94B6090F90A5
:101480000F900F900F900E94B80FCB011F910F91FA
:10149000FF90EF90DF90CF90BF90AF909F908F9094
:1014A00008958F929F92AF92BF92CF92DF92EF9268
:1014B000FF920F931F9300D000D08DB69EB6089474
:1014C000811C911CAA2797FDA095BA2FBC01CD01C4
:1014D0000E94EB0F20E030E040E050E0F401208378
:1014E00031834283538320E030E047E853E40F2EFA
:1014F000F0E0EF2EF0E4FF2EFEE10F2FF4E41F2FBB
:10150000F02D0F2EF0E0AF2EF0E0BF2EF4EBCF2E3B
:10151000F2ECDF2EF02D0E94B6090F900F900F9085
:101520000F900E94B80FCB011F910F91FF90EF9089
:10153000DF90CF90BF90AF909F908F9008952091B3
:1015400054013091550140915601509157010E942C
:10155000500F20E030E044E353E40E94A3100E94C7
:10156000B80FCB010895681B790B77FF06C080E0A8
:101570006B5F7F4F3CF081E0089580E0663071053D
:101580000CF481E0089588349105D1F08C349105F4
:10159000A9F56130710549F480E090E060E078E001
:1015A0000E94B30481E090E016C0672B39F581E01A
:1015B00090E060E078E00E94B30480E090E00BC02F
:1015C0006130710569F482E090E060E078E00E94AB
:1015D000B30483E090E060E070E00E94B3040895FB
:1015E000672B61F483E090E060E078E00E94B30450
:1015F00082E090E060E070E00E94B304089580E033
:1016000090E060E070E00E94B30481E090E060E070
:1016100070E00E94B30482E090E060E070E00E941D
:10162000B30483E090E060E070E00E94B3040895AA
:10163000AF92BF92CF92DF92EF92FF920F931F93E0
:10164000CF93DF936C015B0182E090E00E94AF04D6
:1016500082E090E00E9493040E94030A7C0183E0F0
:1016600090E00E94AF0483E090E00E9493040E9407
:10167000510A8C018CE490E0B601A7010E94F605A6
:10168000EC0188E490E0B501A8010E94F6058C0108
:10169000D7FD08C080E090E0BE010E94B30481E065
:1016A00090E00AC0662777276C1B7D0B81E090E0F5
:1016B0000E94B30480E090E060E070E00E94B30418
:1016C00017FD08C083E090E0B8010E94B30482E0F7
:1016D00090E007C082E090E0B8010E94B30483E08C
:1016E00090E060E070E00E94B304DF91CF911F9121
:1016F0000F91FF90EF90DF90CF90BF90AF90089543
:1017000080E090E060E070E00E94180B08952F9256
:101710003F924F925F926F927F928F929F92AF9281
:10172000BF92CF92DF92EF92FF920F931F93DF93BE
:10173000CF93CDB7DEB7A0970FB6F894DEBF0FBE3C
:10174000CDBF9C01442737FD4095542F298F3A8FF8
:101750004B8F5C8FCB01AA2797FDA095BA2F8D8F59
:101760009E8FAF8FB8A382E090E00E94AF0482E02A
:1017700090E00E9493040E94030A9C838B8383E081
:1017800090E00E94AF0483E090E00E9493040E94E6
:10179000510A9A838983698D7A8D8B8D9C8D0E94E5
:1017A000EB0F698B7A8B8B8B9C8B6D8D7E8D8F8DE8
:1017B00098A10E94EB0F209148013091490140917E
:1017C0004A0150914B010E94890E6D8B7E8B8F8B4D
:1017D000988F60904C0170904D0180904E019090D8
:1017E0004F01209050013090510140905201509093
:1017F000530169897A898B899C899B01AC010E947C
:10180000A3107B018C016D897E898F89988D9B0146
:10181000AC010E94A3109B01AC01C801B7010E945A
:101820008A0E7B018C01C401B301A40193010E94C3
:10183000A3109B01AC01C801B7010E94890E7B0176
:101840008C01C201B101A20191010E94A3109B0170
:10185000AC01C801B7010E94890E7B018C01C40153
:10186000B301A40193010E948A0EA20191010E947A
:10187000A3109B01AC01C801B7010E94500F5B018E
:101880006C01A60195010E94A3109B01AC0160E0D0
:1018900070E080E89FE30E94890E0E940A117B019C
:1018A0008C0117FB109517F91095C801B701A60117
:1018B00095010E94FD0E6D877E878F87988B209102
:1018C000540130915501409156015091570129879B
:1018D0003A874B875C876D897E898F89988D2989A6
:1018E0003A894B895C890E94FD0E6D837E838F83CC
:1018F0009887C401B301A80197010E94A3107B013E
:101900008C01C201B101A60195010E94A3109B01A7
:10191000AC01C401B3010E948A0E9B01AC01C80155
:10192000B7010E94FD0E9B01AC016D817E818F810C
:1019300098850E94890E20E030E044E353E40E9441
:10194000A31029853A854B855C850E94500F0E9423
:10195000B80F9B01AC016B018CE490E0B9014B81A5
:101960005C810E94F6058C016D857E858F85988946
:1019700020E030E044E353E40E94A31029853A8537
:101980004B855C850E94500F0E94B80F9B01AC01F3
:101990007B0188E490E0B90149815A810E94F605F3
:1019A0005C0117FD08C080E090E0B8010E94B3041C
:1019B00081E090E00AC066277727601B710B81E009
:1019C00090E00E94B30480E090E060E070E00E944C
:1019D000B304B7FC08C083E090E0B5010E94B304F3
:1019E00082E090E007C082E090E0B5010E94B3047D
:1019F00083E090E060E070E00E94B304C6016B8178
:101A00007C810E94B30A882339F0C70169817A81F9
:101A10000E94B30A882309F500D000D000D0EDB7AA
:101A2000FEB7319626E131E0ADB7BEB712963C93D2
:101A30002E9311974B815C815383428389819A81D4
:101A4000958384830E94FA12ADB7BEB716960FB67F
:101A5000F894BEBF0FBEADBF86CEA0960FB6F89469
:101A6000DEBF0FBECDBFCF91DF911F910F91FF90D1
:101A7000EF90DF90CF90BF90AF909F908F907F902E
:101A80006F905F904F903F902F9008952BE130E042
:101A9000AC01429FC001439F900D529F900D1124B5
:101AA00066E670E00E946011CB0108959C01220F50
:101AB000331F220F331F280F391FC9010895CF93F9
:101AC000DF93EC0180912B008F7780932B0086E0D1
:101AD0000E94FF07209711F480E00DC0C130D105AE
:101AE00011F481E008C0229729F0C0E0D0E040E086
:101AF00050E00AC082E00E94FF07C82FD0E080E0DB
:101B00000E94FF07482F50E080912B00806880934F
:101B10002B003C2F2227242B352BC901DF91CF919D
:101B20000895EF92FF920F931F93009759F580E06D
:101B300090E00E94980660936B0270936C02809311
:101B40006D0290936E0220917D0130917E01409153
:101B50007F01509180017B018C01E21AF30A040B92
:101B6000150BE0926F02F0927002009371021093D5
:101B7000720260937D0170937E0180937F01909348
:101B8000800139C0019759F581E090E00E949806E4
:101B900060936B0270936C0280936D0290936E025F
:101BA0002091810130918201409183015091840103
:101BB0007B018C01E21AF30A040B150BE0926F0211
:101BC000F09270020093710210937202609381018F
:101BD0007093820180938301909384010CC08FEFF6
:101BE0009FEFAFEFBFEF80936F0290937002A093CF
:101BF0007102B093720280916F02909170021F91F6
:101C00000F91FF90EF90089588E591E09093760210
:101C10008093750260E072EC81E090E00E94160E05
:101C200008950E94260880E090E008959B01AC0191
:101C300084E0220F331F441F551F8A95D1F760E0BF
:101C400070E489E191E00E9473112150304030939B
:101C5000C5002093C40088E18093C10086E0809392
:101C6000C2000895982F8091C00085FFFCCF90930B
:101C7000C6000895FC0107C08091C00085FFFCCF1D
:101C80009093C600319690819923B1F708950F93F0
:101C90001F93DF93CF93CDB7DEB764970FB6F89459
:101CA000DEBF0FBECDBF2DB73EB7285030400FB6B8
:101CB000F8943EBF0FBE2DBFEDB7FEB731968E0133
:101CC0000F5F1F4FADB7BEB712961C930E931197BF
:101CD0002FE131E033832283958384837783668386
:101CE0000E940F132DB73EB7285F3F4F0FB6F894F1
:101CF0003EBF0FBE2DBFC8010E943A0E64960FB6BC
:101D0000F894DEBF0FBECDBFCF91DF911F910F9131
:101D100008955058BB27AA270ED0D4C1C5D130F0A2
:101D2000CAD120F031F49F3F11F41EF495C10EF496
:101D3000E095E7FB8BC1E92FD6D180F3BA17620794
:101D400073078407950718F071F49EF5EEC10EF441
:101D5000E0950B2EBA2FA02D0B01B90190010C01BB
:101D6000CA01A0011124FF27591B99F0593F50F4D3
:101D7000503E68F11A16F040A22F232F342F44272B
:101D8000585FF3CF469537952795A795F040539523
:101D9000C9F77EF41F16BA0B620B730B840BBAF0F3
:101DA0009150A1F0FF0FBB1F661F771F881FC2F75E
:101DB0000EC0BA0F621F731F841F48F48795779572
:101DC0006795B795F7959E3F08F0B3CF9395880F29
:101DD00008F09927EE0F97958795089565D158F0EB
:101DE00080E891E009F49EEF66D128F040E851E0E8
:101DF00059F45EEF09C030C198C1E92FE07873D182
:101E000068F3092E052AC1F3261737074807590733
:101E100038F00E2E07F8E02569F0E025E0640AC0EE
:101E2000EF6307F8009407FADB01B9019D01DC01BB
:101E3000CA01AD01EF9343D045D10AD05F9155233C
:101E400031F02BED3FE049E450FD49EC63CF0895BC
:101E5000DF93DD27B92FBF7740E85FE3161617063B
:101E600048075B0710F4D92F67D19F938F937F9317
:101E70006F930ED2ECE7F0E0F2D024D12F913F9196
:101E80004F915F916CD1DD2349F09058A2EA2AED81
:101E90003FE049EC5FE3D0785D274DDFDF9112C171
:101EA0000CD010C108D140F0FFD030F021F45F3FDA
:101EB00019F0CCC051113AC1CFC015D198F3992374
:101EC000C9F35523B1F3951B550BBB27AA276217FE
:101ED0007307840738F09F5F5F4F220F331F441F43
:101EE000AA1FA9F333D00E2E3AF0E0E830D091507B
:101EF0005040E695001CCAF729D0FE2F27D0660F68
:101F0000771F881FBB1F261737074807AB07B0E8A6
:101F100009F0BB0B802DBF01FF2793585F4F2AF0BC
:101F20009E3F510568F092C001C15F3FECF3983EBF
:101F3000DCF3869577956795B795F7959F5FC9F719
:101F4000880F911D9695879597F90895E1E0660FA2
:101F5000771F881FBB1F621773078407BA0720F01B
:101F6000621B730B840BBA0BEE1F88F7E095089584
:101F700004D06894B111DAC00895BDD088F09F579D
:101F800090F0B92F9927B751A0F0D1F0660F771FC5
:101F9000881F991F1AF0BA95C9F712C0B13081F0A5
:101FA000C4D0B1E00895C1C0672F782F8827B85FEB
:101FB00039F0B93FCCF3869577956795B395D9F706
:101FC0003EF490958095709561957F4F8F4F9F4F10
:101FD0000895E89409C097FB3EF49095809570951C
:101FE00061957F4F8F4F9F4F9923A9F0F92F96E965
:101FF000BB279395F695879577956795B795F111DA
:10200000F8CFFAF4BB0F11F460FF1BC06F5F7F4F76
:102010008F4F9F4F16C0882311F096E911C0772388
:1020200021F09EE8872F762F05C0662371F096E891
:10203000862F70E060E02AF09A95660F771F881F60
:10204000DAF7880F9695879597F9089597F99F671E
:1020500080E870E060E008959FEF80EC0895DF93E2
:10206000CF931F930F93FF92EF92DF927B018C012E
:10207000689405C0DA2EEF0172D0FE01E894A591B4
:102080002591359145915591AEF3EF0154DEFE0156
:102090009701A801DA9479F7DF90EF90FF900F9104
:1020A0001F91CF91DF91089500240A941616170608
:1020B00018060906089500240A9412161306140639
:1020C00005060895092E0394000C11F4882352F09C
:1020D000BB0F40F4BF2B11F460FF04C06F5F7F4F54
:1020E0008F4F9F4F089557FD9058440F551F59F03B
:1020F0005F3F71F04795880F97FB991F61F09F3FF5
:1021000079F087950895121613061406551FF2CF1D
:102110004695F1DF08C0161617061806991FF1CF6D
:1021200086957105610508940895E894BB27662794
:102130007727CB0197F908959B01AC0160E070E02F
:1021400080E89FE3ADCE0BD0BDCFAEDF28F0B3DF8C
:1021500018F0952309F07ACF7FCF1124E7CFC3DFA2
:10216000A0F3959FD1F3950F50E0551F629FF001AA
:10217000729FBB27F00DB11D639FAA27F00DB11D03
:10218000AA1F649F6627B00DA11D661F829F22278C
:10219000B00DA11D621F739FB00DA11D621F839F13
:1021A000A00D611D221F749F3327A00D611D231FE9
:1021B000849F600D211D822F762F6A2F11249F5737
:1021C00050408AF0E1F088234AF0EE0FFF1FBB1F5A
:1021D000661F771F881F91505040A9F79E3F5105F9
:1021E00070F034CFA3CF5F3FECF3983EDCF38695DD
:1021F00077956795B795F795E7959F5FC1F7FE2BA4
:10220000880F911D9695879597F9089511F40EF40E
:1022100023CF41C070DFD0F39923D9F3CEF39F577A
:10222000550B87FF46D00024A0E640EA9001805875
:102230005695979528F4805C660F771F881F20F0CD
:1022400026173707480730F4621B730B840B2029CD
:1022500031294A2BA69517940794202531254A2722
:1022600058F7660F771F881F20F026173707480793
:1022700030F4620B730B840B200D311D411DA095B2
:1022800081F7B901842F9158880F96958795089505
:102290009B01AC0158CF9F3F31F0915020F48795BE
:1022A00077956795B795880F911D9695879597F9BE
:1022B000089591505040660F771F881FD2F70895F8
:1022C00097FB092E07260AD077FD04D065D006D0EB
:1022D00000201AF4709561957F4F0895F6F7909558
:1022E00081959F4F0895A1E21A2EAA1BBB1BFD01E9
:1022F0000DC0AA1FBB1FEE1FFF1FA217B307E407E5
:10230000F50720F0A21BB30BE40BF50B661F771F3C
:10231000881F991F1A9469F760957095809590951C
:102320009B01AC01BD01CF0108952F923F924F92C6
:102330005F926F927F928F929F92AF92BF92CF9255
:10234000DF92EF92FF920F931F93CF93DF93CDB75E
:10235000DEB7CA1BDB0B0FB6F894DEBF0FBECDBFD6
:1023600009942A88398848885F846E847D848C84A7
:102370009B84AA84B984C884DF80EE80FD800C81B0
:102380001B81AA81B981CE0FD11D0FB6F894DEBF93
:102390000FBECDBFED010895AA1BBB1B51E107C0C5
:1023A000AA1FBB1FA617B70710F0A61BB70B881FE5
:1023B000991F5A95A9F780959095BC01CD01089574
:1023C000283008F027E03327DA01990F311D87FD07
:1023D000916000966105710539F432602E5F3D937E
:1023E00030E32A95E1F708959F3F30F0803871057A
:1023F000610509F03C5F3C5F3D93913008F08068D7
:10240000911DDF93CF931F930F93FF92EF92192F9C
:10241000987F9695E92F96959695E90FFF27E55FAA
:10242000FE4F99273327EE24FF24A701E7010590EB
:102430000894079428F4360FE71EF81E491F511D13
:10244000660F771F881F991F0694A1F705900794C0
:1024500028F4E70EF81E491F561FC11D770F881F6D
:10246000991F661F0694A1F70590079428F4F80EAB
:10247000491F561FC71FD11D880F991F661F771F41
:102480000694A1F70590079420F4490F561FC71F23
:10249000D81F990F661F771F881F0694A9F784918C
:1024A0001095177041F0D695C79557954795F794B5
:1024B000E7941A95C1F7E1EBF0E068941590159157
:1024C00035916591959105907FE27395E118F10A38
:1024D000430B560BC90BD009C0F7E10CF11E431F8B
:1024E000561FC91FD01D7EF4703311F48A95E6CFB4
:1024F000E894015030F0080F0AF40027021708F49E
:10250000202F2395022F7A3328F079E37D932A95A3
:10251000E9F710C07D932A9589F6069497956795FB
:10252000379517951794E118F10A430B560BC90B11
:10253000D00998F023957E9173957A3308F070E373
:102540007C932013B8F77E9170617D9330F0839572
:1025500071E37D9370E32A95E1F71124EF90FF90EA
:102560000F911F91CF91DF91992787FD9095089545
:10257000FC010590615070400110D8F7809590954E
:102580008E0F9F1F0895FC01615070400190011053
:10259000D8F7809590958E0F9F1F08950F931F93E6
:1025A000CF93DF938C01EB018B8181FF1BC082FFF6
:1025B0000DC02E813F818C819D812817390764F4DD
:1025C000E881F9810193F983E88306C0E885F985FC
:1025D000802F0995892B31F48E819F8101969F83ED
:1025E0008E8302C00FEF1FEFC801DF91CF911F91C3
:1025F0000F910895A0E0B0E0E0E0F3E10C94A511A4
:10260000FE013596619171918091750290917602EB
:10261000AF010E94F5002096E2E00C94C111AEE0FB
:10262000B0E0E5E1F3E10C94A3110D891E8986E089
:102630008C831A8309838FEF9FE79E838D839E018E
:10264000275E3F4FCE0101966F89788DA9010E94C8
:10265000F5002F813885020F131FF80110822E9686
:10266000E4E00C94BF11FA01AA27283051F120317F
:1026700081F1E8946F936E7F6E5F7F4F8F4F9F4F16
:10268000AF4FB1E03ED0B4E03CD0670F781F891F58
:102690009A1FA11D680F791F8A1F911DA11D6A0F26
:1026A000711D811D911DA11D20D009F468943F91D9
:1026B0002AE0269F11243019305D3193DEF6CF01D8
:1026C0000895462F4770405D4193B3E00FD0C9F79E
:1026D000F6CF462F4F70405D4A3318F0495D31FD0B
:1026E0004052419302D0A9F7EACFB4E0A69597955E
:1026F000879577956795BA95C9F700976105710534
:1027000008959B01AC010A2E06945795479537957D
:102710002795BA95C9F7620F731F841F951FA01DD7
:062720000895F894FFCFBC
:10272600256C642C0925642C0925642C0925642C48
:102736000925640D0A0025642C0925640D0A005339
:102746006574736572766F2825642C253033642989
:102756000A0D002D004C000086420000804000005B
:10276600E03FC800C800001035DE0E43A8661843D7
:102776009C841843DB0F4940000000020000000063
:08278600110E00000000140018
:00000001FF
